{
  "abi": [
    {
      "inputs": [
        {
          "internalType": "address",
          "name": "_coinContract",
          "type": "address"
        }
      ],
      "stateMutability": "nonpayable",
      "type": "constructor"
    },
    {
      "anonymous": false,
      "inputs": [
        {
          "indexed": false,
          "internalType": "address",
          "name": "claimee",
          "type": "address"
        }
      ],
      "name": "rewardClaimed",
      "type": "event"
    },
    {
      "anonymous": false,
      "inputs": [
        {
          "indexed": false,
          "internalType": "address",
          "name": "who",
          "type": "address"
        }
      ],
      "name": "rewardsHalted",
      "type": "event"
    },
    {
      "inputs": [
        {
          "internalType": "uint256",
          "name": "rewardID",
          "type": "uint256"
        },
        {
          "internalType": "uint256",
          "name": "rewardCount",
          "type": "uint256"
        }
      ],
      "name": "addPrize",
      "outputs": [],
      "stateMutability": "nonpayable",
      "type": "function"
    },
    {
      "inputs": [
        {
          "internalType": "uint256",
          "name": "rewardID",
          "type": "uint256"
        },
        {
          "internalType": "uint256",
          "name": "coins",
          "type": "uint256"
        }
      ],
      "name": "claimReward",
      "outputs": [],
      "stateMutability": "nonpayable",
      "type": "function"
    },
    {
      "inputs": [
        {
          "internalType": "bool",
          "name": "_rewardsPaused",
          "type": "bool"
        }
      ],
      "name": "pauseRewards",
      "outputs": [],
      "stateMutability": "nonpayable",
      "type": "function"
    },
    {
      "inputs": [
        {
          "internalType": "uint256",
          "name": "rewardID",
          "type": "uint256"
        }
      ],
      "name": "removePrize",
      "outputs": [],
      "stateMutability": "nonpayable",
      "type": "function"
    },
    {
      "inputs": [
        {
          "internalType": "uint256",
          "name": "",
          "type": "uint256"
        }
      ],
      "name": "rewardIDToRewardCount",
      "outputs": [
        {
          "internalType": "uint256",
          "name": "",
          "type": "uint256"
        }
      ],
      "stateMutability": "view",
      "type": "function"
    },
    {
      "inputs": [
        {
          "internalType": "uint256",
          "name": "",
          "type": "uint256"
        }
      ],
      "name": "rewardIDToRewardPrice",
      "outputs": [
        {
          "internalType": "uint256",
          "name": "",
          "type": "uint256"
        }
      ],
      "stateMutability": "view",
      "type": "function"
    }
  ],
  "bytecode": "608060405234801561001057600080fd5b5060405161043938038061043983398101604081905261002f91610054565b600180546001600160a01b0319166001600160a01b0392909216919091179055610084565b60006020828403121561006657600080fd5b81516001600160a01b038116811461007d57600080fd5b9392505050565b6103a6806100936000396000f3fe608060405234801561001057600080fd5b50600436106100625760003560e01c806307bdb1861461006757806331b7558b146100995780636bd24cb4146100ae57806386bb8f37146100c1578063b1ddf075146100d4578063c6ba8427146100f4575b600080fd5b6100876100753660046102bc565b60026020526000908152604090205481565b60405190815260200160405180910390f35b6100ac6100a73660046102e6565b610107565b005b6100ac6100bc3660046102bc565b610154565b6100ac6100cf36600461030a565b61017c565b6100876100e23660046102bc565b60036020526000908152604090205481565b6100ac61010236600461030a565b610293565b6001805460ff60a01b1916600160a01b831515021790556040513381527ff42b79f7755e1fe195ffe4b6dedd32acb3f379d48c664a958dd6f30ff8bacbf79060200160405180910390a150565b6000546001600160a01b0316331461016b57600080fd5b600090815260026020526040812055565b60008281526002602052604090205461019457600080fd5b600154600160a01b900460ff16156101ab57600080fd5b6001546040516323b872dd60e01b8152336004820152306024820152604481018390526001600160a01b03909116906323b872dd906064016020604051808303816000875af1158015610202573d6000803e3d6000fd5b505050506040513d601f19601f82011682018060405250810190610226919061032c565b61022f57600080fd5b60008281526002602052604090205461024a90600190610349565b60008381526002602090815260409182902092909255513381527f29e197049bed9d0535b455fed2dc45b916a0de23b14a030659e8220ee42b2f20910160405180910390a15050565b6000546001600160a01b031633146102aa57600080fd5b60009182526002602052604090912055565b6000602082840312156102ce57600080fd5b5035919050565b80151581146102e357600080fd5b50565b6000602082840312156102f857600080fd5b8135610303816102d5565b9392505050565b6000806040838503121561031d57600080fd5b50508035926020909101359150565b60006020828403121561033e57600080fd5b8151610303816102d5565b8181038181111561036a57634e487b7160e01b600052601160045260246000fd5b9291505056fea2646970667358221220c56b4b97a2c4cefca6573def0e666de15a009af3e3dbe6e24cc3b7f2be9942a664736f6c63430008130033",
  "bytecodeSha1": "06b3ddc62d81ebd9ab40117e29e08df5cde97781",
  "compiler": {
    "evm_version": "istanbul",
    "optimizer": {
      "enabled": true,
      "runs": 200
    },
    "version": "0.8.19+commit.7dd6d404"
  },
  "contractName": "TFSRewards",
  "language": "Solidity",
  "natspec": {
    "kind": "dev",
    "methods": {},
    "version": 1
  },
  "opcodes": "PUSH1 0x80 PUSH1 0x40 MSTORE CALLVALUE DUP1 ISZERO PUSH2 0x10 JUMPI PUSH1 0x0 DUP1 REVERT JUMPDEST POP PUSH1 0x4 CALLDATASIZE LT PUSH2 0x62 JUMPI PUSH1 0x0 CALLDATALOAD PUSH1 0xE0 SHR DUP1 PUSH4 0x7BDB186 EQ PUSH2 0x67 JUMPI DUP1 PUSH4 0x31B7558B EQ PUSH2 0x99 JUMPI DUP1 PUSH4 0x6BD24CB4 EQ PUSH2 0xAE JUMPI DUP1 PUSH4 0x86BB8F37 EQ PUSH2 0xC1 JUMPI DUP1 PUSH4 0xB1DDF075 EQ PUSH2 0xD4 JUMPI DUP1 PUSH4 0xC6BA8427 EQ PUSH2 0xF4 JUMPI JUMPDEST PUSH1 0x0 DUP1 REVERT JUMPDEST PUSH2 0x87 PUSH2 0x75 CALLDATASIZE PUSH1 0x4 PUSH2 0x2BC JUMP JUMPDEST PUSH1 0x2 PUSH1 0x20 MSTORE PUSH1 0x0 SWAP1 DUP2 MSTORE PUSH1 0x40 SWAP1 KECCAK256 SLOAD DUP2 JUMP JUMPDEST PUSH1 0x40 MLOAD SWAP1 DUP2 MSTORE PUSH1 0x20 ADD PUSH1 0x40 MLOAD DUP1 SWAP2 SUB SWAP1 RETURN JUMPDEST PUSH2 0xAC PUSH2 0xA7 CALLDATASIZE PUSH1 0x4 PUSH2 0x2E6 JUMP JUMPDEST PUSH2 0x107 JUMP JUMPDEST STOP JUMPDEST PUSH2 0xAC PUSH2 0xBC CALLDATASIZE PUSH1 0x4 PUSH2 0x2BC JUMP JUMPDEST PUSH2 0x154 JUMP JUMPDEST PUSH2 0xAC PUSH2 0xCF CALLDATASIZE PUSH1 0x4 PUSH2 0x30A JUMP JUMPDEST PUSH2 0x17C JUMP JUMPDEST PUSH2 0x87 PUSH2 0xE2 CALLDATASIZE PUSH1 0x4 PUSH2 0x2BC JUMP JUMPDEST PUSH1 0x3 PUSH1 0x20 MSTORE PUSH1 0x0 SWAP1 DUP2 MSTORE PUSH1 0x40 SWAP1 KECCAK256 SLOAD DUP2 JUMP JUMPDEST PUSH2 0xAC PUSH2 0x102 CALLDATASIZE PUSH1 0x4 PUSH2 0x30A JUMP JUMPDEST PUSH2 0x293 JUMP JUMPDEST PUSH1 0x1 DUP1 SLOAD PUSH1 0xFF PUSH1 0xA0 SHL NOT AND PUSH1 0x1 PUSH1 0xA0 SHL DUP4 ISZERO ISZERO MUL OR SWAP1 SSTORE PUSH1 0x40 MLOAD CALLER DUP2 MSTORE PUSH32 0xF42B79F7755E1FE195FFE4B6DEDD32ACB3F379D48C664A958DD6F30FF8BACBF7 SWAP1 PUSH1 0x20 ADD PUSH1 0x40 MLOAD DUP1 SWAP2 SUB SWAP1 LOG1 POP JUMP JUMPDEST PUSH1 0x0 SLOAD PUSH1 0x1 PUSH1 0x1 PUSH1 0xA0 SHL SUB AND CALLER EQ PUSH2 0x16B JUMPI PUSH1 0x0 DUP1 REVERT JUMPDEST PUSH1 0x0 SWAP1 DUP2 MSTORE PUSH1 0x2 PUSH1 0x20 MSTORE PUSH1 0x40 DUP2 KECCAK256 SSTORE JUMP JUMPDEST PUSH1 0x0 DUP3 DUP2 MSTORE PUSH1 0x2 PUSH1 0x20 MSTORE PUSH1 0x40 SWAP1 KECCAK256 SLOAD PUSH2 0x194 JUMPI PUSH1 0x0 DUP1 REVERT JUMPDEST PUSH1 0x1 SLOAD PUSH1 0x1 PUSH1 0xA0 SHL SWAP1 DIV PUSH1 0xFF AND ISZERO PUSH2 0x1AB JUMPI PUSH1 0x0 DUP1 REVERT JUMPDEST PUSH1 0x1 SLOAD PUSH1 0x40 MLOAD PUSH4 0x23B872DD PUSH1 0xE0 SHL DUP2 MSTORE CALLER PUSH1 0x4 DUP3 ADD MSTORE ADDRESS PUSH1 0x24 DUP3 ADD MSTORE PUSH1 0x44 DUP2 ADD DUP4 SWAP1 MSTORE PUSH1 0x1 PUSH1 0x1 PUSH1 0xA0 SHL SUB SWAP1 SWAP2 AND SWAP1 PUSH4 0x23B872DD SWAP1 PUSH1 0x64 ADD PUSH1 0x20 PUSH1 0x40 MLOAD DUP1 DUP4 SUB DUP2 PUSH1 0x0 DUP8 GAS CALL ISZERO DUP1 ISZERO PUSH2 0x202 JUMPI RETURNDATASIZE PUSH1 0x0 DUP1 RETURNDATACOPY RETURNDATASIZE PUSH1 0x0 REVERT JUMPDEST POP POP POP POP PUSH1 0x40 MLOAD RETURNDATASIZE PUSH1 0x1F NOT PUSH1 0x1F DUP3 ADD AND DUP3 ADD DUP1 PUSH1 0x40 MSTORE POP DUP2 ADD SWAP1 PUSH2 0x226 SWAP2 SWAP1 PUSH2 0x32C JUMP JUMPDEST PUSH2 0x22F JUMPI PUSH1 0x0 DUP1 REVERT JUMPDEST PUSH1 0x0 DUP3 DUP2 MSTORE PUSH1 0x2 PUSH1 0x20 MSTORE PUSH1 0x40 SWAP1 KECCAK256 SLOAD PUSH2 0x24A SWAP1 PUSH1 0x1 SWAP1 PUSH2 0x349 JUMP JUMPDEST PUSH1 0x0 DUP4 DUP2 MSTORE PUSH1 0x2 PUSH1 0x20 SWAP1 DUP2 MSTORE PUSH1 0x40 SWAP2 DUP3 SWAP1 KECCAK256 SWAP3 SWAP1 SWAP3 SSTORE MLOAD CALLER DUP2 MSTORE PUSH32 0x29E197049BED9D0535B455FED2DC45B916A0DE23B14A030659E8220EE42B2F20 SWAP2 ADD PUSH1 0x40 MLOAD DUP1 SWAP2 SUB SWAP1 LOG1 POP POP JUMP JUMPDEST PUSH1 0x0 SLOAD PUSH1 0x1 PUSH1 0x1 PUSH1 0xA0 SHL SUB AND CALLER EQ PUSH2 0x2AA JUMPI PUSH1 0x0 DUP1 REVERT JUMPDEST PUSH1 0x0 SWAP2 DUP3 MSTORE PUSH1 0x2 PUSH1 0x20 MSTORE PUSH1 0x40 SWAP1 SWAP2 KECCAK256 SSTORE JUMP JUMPDEST PUSH1 0x0 PUSH1 0x20 DUP3 DUP5 SUB SLT ISZERO PUSH2 0x2CE JUMPI PUSH1 0x0 DUP1 REVERT JUMPDEST POP CALLDATALOAD SWAP2 SWAP1 POP JUMP JUMPDEST DUP1 ISZERO ISZERO DUP2 EQ PUSH2 0x2E3 JUMPI PUSH1 0x0 DUP1 REVERT JUMPDEST POP JUMP JUMPDEST PUSH1 0x0 PUSH1 0x20 DUP3 DUP5 SUB SLT ISZERO PUSH2 0x2F8 JUMPI PUSH1 0x0 DUP1 REVERT JUMPDEST DUP2 CALLDATALOAD PUSH2 0x303 DUP2 PUSH2 0x2D5 JUMP JUMPDEST SWAP4 SWAP3 POP POP POP JUMP JUMPDEST PUSH1 0x0 DUP1 PUSH1 0x40 DUP4 DUP6 SUB SLT ISZERO PUSH2 0x31D JUMPI PUSH1 0x0 DUP1 REVERT JUMPDEST POP POP DUP1 CALLDATALOAD SWAP3 PUSH1 0x20 SWAP1 SWAP2 ADD CALLDATALOAD SWAP2 POP JUMP JUMPDEST PUSH1 0x0 PUSH1 0x20 DUP3 DUP5 SUB SLT ISZERO PUSH2 0x33E JUMPI PUSH1 0x0 DUP1 REVERT JUMPDEST DUP2 MLOAD PUSH2 0x303 DUP2 PUSH2 0x2D5 JUMP JUMPDEST DUP2 DUP2 SUB DUP2 DUP2 GT ISZERO PUSH2 0x36A JUMPI PUSH4 0x4E487B71 PUSH1 0xE0 SHL PUSH1 0x0 MSTORE PUSH1 0x11 PUSH1 0x4 MSTORE PUSH1 0x24 PUSH1 0x0 REVERT JUMPDEST SWAP3 SWAP2 POP POP JUMP INVALID LOG2 PUSH5 0x6970667358 0x22 SLT KECCAK256 0xC5 PUSH12 0x4B97A2C4CEFCA6573DEF0E66 PUSH14 0xE15A009AF3E3DBE6E24CC3B7F2BE SWAP10 TIMESTAMP 0xA6 PUSH5 0x736F6C6343 STOP ADDMOD SGT STOP CALLER ",
  "sha1": "2892d74350db7fcae53e866cc8dc688cf40f3fad",
  "source": "pragma solidity 0.8.19;\n\nimport \"@openzeppelin/contracts/token/ERC20/ERC20.sol\";\nimport \"./TFSCoin.sol\";\n\ncontract TFSRewards {\n\n    address private admin; //possibly change to mapping of admins\n    TFSCoin coinContract;\n\n    constructor(address _coinContract) {\n        coinContract = TFSCoin(_coinContract);\n    }\n\n    bool rewardsPaused;\n\n    mapping(uint256 => uint256) public rewardIDToRewardCount;\n    mapping(uint256 => uint256) public rewardIDToRewardPrice;\n\n    event rewardClaimed(address claimee);\n    event rewardsHalted(address who);\n\n    modifier onlyAdmin {\n        require(msg.sender == admin);\n        _;\n    }\n\n    function claimReward(uint256 rewardID, uint256 coins) public {\n        require(rewardIDToRewardCount[rewardID] > 0);\n        require(!rewardsPaused);\n        require(coinContract.transferFrom(msg.sender, address(this), coins));\n        rewardIDToRewardCount[rewardID] = rewardIDToRewardCount[rewardID] - 1;\n        emit rewardClaimed(msg.sender);\n    }\n    \n    function addPrize(uint256 rewardID, uint256 rewardCount) onlyAdmin public {\n        rewardIDToRewardCount[rewardID] = rewardCount;\n    }\n\n    function removePrize(uint256 rewardID) onlyAdmin public {\n        rewardIDToRewardCount[rewardID] = 0;\n    }\n\n    function pauseRewards(bool _rewardsPaused) public {\n        rewardsPaused = _rewardsPaused;\n        emit rewardsHalted(msg.sender);\n    }\n\n}",
  "sourcePath": "contracts/TFSRewards.sol",
  "type": "contract"
}