{
  "abi": [
    {
      "inputs": [
        {
          "internalType": "address",
          "name": "_coinContract",
          "type": "address"
        }
      ],
      "stateMutability": "nonpayable",
      "type": "constructor"
    },
    {
      "anonymous": false,
      "inputs": [
        {
          "indexed": false,
          "internalType": "address",
          "name": "who",
          "type": "address"
        },
        {
          "indexed": false,
          "internalType": "uint256",
          "name": "awardID",
          "type": "uint256"
        }
      ],
      "name": "awardedCoins",
      "type": "event"
    },
    {
      "anonymous": false,
      "inputs": [
        {
          "indexed": false,
          "internalType": "address",
          "name": "claimee",
          "type": "address"
        },
        {
          "indexed": false,
          "internalType": "uint256",
          "name": "rewardID",
          "type": "uint256"
        }
      ],
      "name": "rewardClaimed",
      "type": "event"
    },
    {
      "anonymous": false,
      "inputs": [
        {
          "indexed": false,
          "internalType": "address",
          "name": "who",
          "type": "address"
        }
      ],
      "name": "rewardsHalted",
      "type": "event"
    },
    {
      "inputs": [
        {
          "internalType": "address",
          "name": "newAdmin",
          "type": "address"
        }
      ],
      "name": "addAdmin",
      "outputs": [],
      "stateMutability": "nonpayable",
      "type": "function"
    },
    {
      "inputs": [
        {
          "internalType": "uint256",
          "name": "awardID",
          "type": "uint256"
        }
      ],
      "name": "addAward",
      "outputs": [],
      "stateMutability": "nonpayable",
      "type": "function"
    },
    {
      "inputs": [
        {
          "internalType": "uint256",
          "name": "rewardID",
          "type": "uint256"
        },
        {
          "internalType": "uint256",
          "name": "rewardCount",
          "type": "uint256"
        }
      ],
      "name": "addReward",
      "outputs": [],
      "stateMutability": "nonpayable",
      "type": "function"
    },
    {
      "inputs": [
        {
          "internalType": "uint256",
          "name": "",
          "type": "uint256"
        }
      ],
      "name": "availableAwards",
      "outputs": [
        {
          "internalType": "bool",
          "name": "",
          "type": "bool"
        }
      ],
      "stateMutability": "view",
      "type": "function"
    },
    {
      "inputs": [
        {
          "internalType": "address",
          "name": "employeeAddress",
          "type": "address"
        },
        {
          "internalType": "uint256",
          "name": "coins",
          "type": "uint256"
        },
        {
          "internalType": "uint256",
          "name": "awardID",
          "type": "uint256"
        }
      ],
      "name": "awardCoins",
      "outputs": [],
      "stateMutability": "nonpayable",
      "type": "function"
    },
    {
      "inputs": [
        {
          "internalType": "address",
          "name": "employeeAddress",
          "type": "address"
        },
        {
          "internalType": "uint256",
          "name": "rewardID",
          "type": "uint256"
        }
      ],
      "name": "claimReward",
      "outputs": [],
      "stateMutability": "nonpayable",
      "type": "function"
    },
    {
      "inputs": [
        {
          "internalType": "address",
          "name": "",
          "type": "address"
        }
      ],
      "name": "isAdmin",
      "outputs": [
        {
          "internalType": "bool",
          "name": "",
          "type": "bool"
        }
      ],
      "stateMutability": "view",
      "type": "function"
    },
    {
      "inputs": [
        {
          "internalType": "bool",
          "name": "_rewardsPaused",
          "type": "bool"
        }
      ],
      "name": "pauseRewards",
      "outputs": [],
      "stateMutability": "nonpayable",
      "type": "function"
    },
    {
      "inputs": [
        {
          "internalType": "address",
          "name": "newAdmin",
          "type": "address"
        }
      ],
      "name": "removeAdmin",
      "outputs": [],
      "stateMutability": "nonpayable",
      "type": "function"
    },
    {
      "inputs": [
        {
          "internalType": "uint256",
          "name": "awardID",
          "type": "uint256"
        }
      ],
      "name": "removeAward",
      "outputs": [],
      "stateMutability": "nonpayable",
      "type": "function"
    },
    {
      "inputs": [
        {
          "internalType": "uint256",
          "name": "rewardID",
          "type": "uint256"
        }
      ],
      "name": "removeReward",
      "outputs": [],
      "stateMutability": "nonpayable",
      "type": "function"
    },
    {
      "inputs": [
        {
          "internalType": "uint256",
          "name": "",
          "type": "uint256"
        }
      ],
      "name": "rewardIDToRewardCount",
      "outputs": [
        {
          "internalType": "uint256",
          "name": "",
          "type": "uint256"
        }
      ],
      "stateMutability": "view",
      "type": "function"
    },
    {
      "inputs": [
        {
          "internalType": "uint256",
          "name": "",
          "type": "uint256"
        }
      ],
      "name": "rewardIDToRewardPrice",
      "outputs": [
        {
          "internalType": "uint256",
          "name": "",
          "type": "uint256"
        }
      ],
      "stateMutability": "view",
      "type": "function"
    }
  ],
  "bytecode": "608060405234801561001057600080fd5b50604051610e34380380610e3483398101604081905261002f916100bd565b600180546001600160a01b0319166001600160a01b0392909216919091178155336000908152602081815260408220805460ff1916909317909255805260647fac33ff75c19e70fe83507db0d683fd3465c996598dc972688b7ace676c89077b5560039052600f7f3617319a054d772f909f7c479a2cebe5066e836a939412e32403c99029b92eff556100ed565b6000602082840312156100cf57600080fd5b81516001600160a01b03811681146100e657600080fd5b9392505050565b610d38806100fc6000396000f3fe608060405234801561001057600080fd5b50600436106100cf5760003560e01c806331b7558b1161008c57806379af51411161006657806379af5141146101d1578063b1ddf075146101e4578063b479d10b14610204578063c553173f1461021757600080fd5b806331b7558b1461019857806370480275146101ab57806375c93bb9146101be57600080fd5b806302ac7b8e146100d457806307bdb186146100e957806310fa05cc1461011c578063174e31c41461014f5780631785f53c1461016257806324d7806c14610175575b600080fd5b6100e76100e2366004610aba565b61022a565b005b6101096100f7366004610aed565b60026020526000908152604090205481565b6040519081526020015b60405180910390f35b61013f61012a366004610aed565b60046020526000908152604090205460ff1681565b6040519015158152602001610113565b6100e761015d366004610b06565b610370565b6100e7610170366004610b30565b610586565b61013f610183366004610b30565b60006020819052908152604090205460ff1681565b6100e76101a6366004610b63565b610604565b6100e76101b9366004610b30565b6106ae565b6100e76101cc366004610b80565b61072f565b6100e76101df366004610aed565b61079e565b6101096101f2366004610aed565b60036020526000908152604090205481565b6100e7610212366004610aed565b610813565b6100e7610225366004610aed565b61088b565b60008181526004602052604090205460ff166102a95760405162461bcd60e51b815260206004820152603360248201527f544653526577617264733a2054686973206973206e6f7420612076616c696420604482015272185dd85c9908185d081d1a19481b5bdb595b9d606a1b60648201526084015b60405180910390fd5b6001546040516340c10f1960e01b81526001600160a01b03858116600483015260248201859052909116906340c10f19906044016020604051808303816000875af11580156102fc573d6000803e3d6000fd5b505050506040513d601f19601f820116820180604052508101906103209190610ba2565b61032957600080fd5b604080516001600160a01b0385168152602081018390527fd60d243d470486585ccd84415c03a17e618114139a74153f8dfa63af0053f005910160405180910390a1505050565b3360008181526020819052604090205460ff169061038f9060146108f9565b60405160200161039f9190610be3565b604051602081830303815290604052906103cc5760405162461bcd60e51b81526004016102a09190610c39565b50600154600160a01b900460ff16156104275760405162461bcd60e51b815260206004820152601c60248201527f52657761726473206172652063757272656e746c79207061757365640000000060448201526064016102a0565b60008181526002602052604090205461043f57600080fd5b60015460008281526003602052604090819020549051632770a7eb60e21b81526001600160a01b0385811660048301526024820192909252911690639dc29fac906044016020604051808303816000875af11580156104a2573d6000803e3d6000fd5b505050506040513d601f19601f820116820180604052508101906104c69190610ba2565b6105125760405162461bcd60e51b815260206004820152601e60248201527f4e6f7420656e6f7567682054465320436f696e20666f7220726577617264000060448201526064016102a0565b60008181526002602052604090205461052d90600190610c82565b6000828152600260209081526040918290209290925580516001600160a01b03851681529182018390527f83b78188b13346b2ffb484da70d42ee27de7fbf9f2bd8045269e10ed643ccd76910160405180910390a15050565b3360008181526020819052604090205460ff16906105a59060146108f9565b6040516020016105b59190610be3565b604051602081830303815290604052906105e25760405162461bcd60e51b81526004016102a09190610c39565b506001600160a01b03166000908152602081905260409020805460ff19169055565b3360008181526020819052604090205460ff16906106239060146108f9565b6040516020016106339190610be3565b604051602081830303815290604052906106605760405162461bcd60e51b81526004016102a09190610c39565b506001805460ff60a01b1916600160a01b831515021790556040513381527ff42b79f7755e1fe195ffe4b6dedd32acb3f379d48c664a958dd6f30ff8bacbf79060200160405180910390a150565b3360008181526020819052604090205460ff16906106cd9060146108f9565b6040516020016106dd9190610be3565b6040516020818303038152906040529061070a5760405162461bcd60e51b81526004016102a09190610c39565b506001600160a01b03166000908152602081905260409020805460ff19166001179055565b3360008181526020819052604090205460ff169061074e9060146108f9565b60405160200161075e9190610be3565b6040516020818303038152906040529061078b5760405162461bcd60e51b81526004016102a09190610c39565b5060009182526002602052604090912055565b3360008181526020819052604090205460ff16906107bd9060146108f9565b6040516020016107cd9190610be3565b604051602081830303815290604052906107fa5760405162461bcd60e51b81526004016102a09190610c39565b506000908152600460205260409020805460ff19169055565b3360008181526020819052604090205460ff16906108329060146108f9565b6040516020016108429190610be3565b6040516020818303038152906040529061086f5760405162461bcd60e51b81526004016102a09190610c39565b506000908152600460205260409020805460ff19166001179055565b3360008181526020819052604090205460ff16906108aa9060146108f9565b6040516020016108ba9190610be3565b604051602081830303815290604052906108e75760405162461bcd60e51b81526004016102a09190610c39565b50600090815260026020526040812055565b60606000610908836002610c95565b610913906002610cac565b67ffffffffffffffff81111561092b5761092b610cbf565b6040519080825280601f01601f191660200182016040528015610955576020820181803683370190505b509050600360fc1b8160008151811061097057610970610cd5565b60200101906001600160f81b031916908160001a905350600f60fb1b8160018151811061099f5761099f610cd5565b60200101906001600160f81b031916908160001a90535060006109c3846002610c95565b6109ce906001610cac565b90505b6001811115610a46576f181899199a1a9b1b9c1cb0b131b232b360811b85600f1660108110610a0257610a02610cd5565b1a60f81b828281518110610a1857610a18610cd5565b60200101906001600160f81b031916908160001a90535060049490941c93610a3f81610ceb565b90506109d1565b508315610a955760405162461bcd60e51b815260206004820181905260248201527f537472696e67733a20686578206c656e67746820696e73756666696369656e7460448201526064016102a0565b90505b92915050565b80356001600160a01b0381168114610ab557600080fd5b919050565b600080600060608486031215610acf57600080fd5b610ad884610a9e565b95602085013595506040909401359392505050565b600060208284031215610aff57600080fd5b5035919050565b60008060408385031215610b1957600080fd5b610b2283610a9e565b946020939093013593505050565b600060208284031215610b4257600080fd5b610b4b82610a9e565b9392505050565b8015158114610b6057600080fd5b50565b600060208284031215610b7557600080fd5b8135610a9581610b52565b60008060408385031215610b9357600080fd5b50508035926020909101359150565b600060208284031215610bb457600080fd5b8151610a9581610b52565b60005b83811015610bda578181015183820152602001610bc2565b50506000910152565b7f544653526577617264733a2054686973206973206e6f7420616e2061646d696e815267206164647265737360c01b602082015260008251610c2c816028850160208701610bbf565b9190910160280192915050565b6020815260008251806020840152610c58816040850160208701610bbf565b601f01601f19169190910160400192915050565b634e487b7160e01b600052601160045260246000fd5b81810381811115610a9857610a98610c6c565b8082028115828204841417610a9857610a98610c6c565b80820180821115610a9857610a98610c6c565b634e487b7160e01b600052604160045260246000fd5b634e487b7160e01b600052603260045260246000fd5b600081610cfa57610cfa610c6c565b50600019019056fea2646970667358221220adb3791f5d1928afa29db055648ffca185e733141064f780e415307b296b507764736f6c63430008130033",
  "bytecodeSha1": "21a1e400d231cfb6ae4fc594356421070385c221",
  "compiler": {
    "evm_version": "istanbul",
    "optimizer": {
      "enabled": true,
      "runs": 200
    },
    "version": "0.8.19+commit.7dd6d404"
  },
  "contractName": "TFSRewards",
  "language": "Solidity",
  "natspec": {
    "kind": "dev",
    "methods": {},
    "version": 1
  },
  "opcodes": "PUSH1 0x80 PUSH1 0x40 MSTORE CALLVALUE DUP1 ISZERO PUSH2 0x10 JUMPI PUSH1 0x0 DUP1 REVERT JUMPDEST POP PUSH1 0x4 CALLDATASIZE LT PUSH2 0xCF JUMPI PUSH1 0x0 CALLDATALOAD PUSH1 0xE0 SHR DUP1 PUSH4 0x31B7558B GT PUSH2 0x8C JUMPI DUP1 PUSH4 0x79AF5141 GT PUSH2 0x66 JUMPI DUP1 PUSH4 0x79AF5141 EQ PUSH2 0x1D1 JUMPI DUP1 PUSH4 0xB1DDF075 EQ PUSH2 0x1E4 JUMPI DUP1 PUSH4 0xB479D10B EQ PUSH2 0x204 JUMPI DUP1 PUSH4 0xC553173F EQ PUSH2 0x217 JUMPI PUSH1 0x0 DUP1 REVERT JUMPDEST DUP1 PUSH4 0x31B7558B EQ PUSH2 0x198 JUMPI DUP1 PUSH4 0x70480275 EQ PUSH2 0x1AB JUMPI DUP1 PUSH4 0x75C93BB9 EQ PUSH2 0x1BE JUMPI PUSH1 0x0 DUP1 REVERT JUMPDEST DUP1 PUSH4 0x2AC7B8E EQ PUSH2 0xD4 JUMPI DUP1 PUSH4 0x7BDB186 EQ PUSH2 0xE9 JUMPI DUP1 PUSH4 0x10FA05CC EQ PUSH2 0x11C JUMPI DUP1 PUSH4 0x174E31C4 EQ PUSH2 0x14F JUMPI DUP1 PUSH4 0x1785F53C EQ PUSH2 0x162 JUMPI DUP1 PUSH4 0x24D7806C EQ PUSH2 0x175 JUMPI JUMPDEST PUSH1 0x0 DUP1 REVERT JUMPDEST PUSH2 0xE7 PUSH2 0xE2 CALLDATASIZE PUSH1 0x4 PUSH2 0xABA JUMP JUMPDEST PUSH2 0x22A JUMP JUMPDEST STOP JUMPDEST PUSH2 0x109 PUSH2 0xF7 CALLDATASIZE PUSH1 0x4 PUSH2 0xAED JUMP JUMPDEST PUSH1 0x2 PUSH1 0x20 MSTORE PUSH1 0x0 SWAP1 DUP2 MSTORE PUSH1 0x40 SWAP1 KECCAK256 SLOAD DUP2 JUMP JUMPDEST PUSH1 0x40 MLOAD SWAP1 DUP2 MSTORE PUSH1 0x20 ADD JUMPDEST PUSH1 0x40 MLOAD DUP1 SWAP2 SUB SWAP1 RETURN JUMPDEST PUSH2 0x13F PUSH2 0x12A CALLDATASIZE PUSH1 0x4 PUSH2 0xAED JUMP JUMPDEST PUSH1 0x4 PUSH1 0x20 MSTORE PUSH1 0x0 SWAP1 DUP2 MSTORE PUSH1 0x40 SWAP1 KECCAK256 SLOAD PUSH1 0xFF AND DUP2 JUMP JUMPDEST PUSH1 0x40 MLOAD SWAP1 ISZERO ISZERO DUP2 MSTORE PUSH1 0x20 ADD PUSH2 0x113 JUMP JUMPDEST PUSH2 0xE7 PUSH2 0x15D CALLDATASIZE PUSH1 0x4 PUSH2 0xB06 JUMP JUMPDEST PUSH2 0x370 JUMP JUMPDEST PUSH2 0xE7 PUSH2 0x170 CALLDATASIZE PUSH1 0x4 PUSH2 0xB30 JUMP JUMPDEST PUSH2 0x586 JUMP JUMPDEST PUSH2 0x13F PUSH2 0x183 CALLDATASIZE PUSH1 0x4 PUSH2 0xB30 JUMP JUMPDEST PUSH1 0x0 PUSH1 0x20 DUP2 SWAP1 MSTORE SWAP1 DUP2 MSTORE PUSH1 0x40 SWAP1 KECCAK256 SLOAD PUSH1 0xFF AND DUP2 JUMP JUMPDEST PUSH2 0xE7 PUSH2 0x1A6 CALLDATASIZE PUSH1 0x4 PUSH2 0xB63 JUMP JUMPDEST PUSH2 0x604 JUMP JUMPDEST PUSH2 0xE7 PUSH2 0x1B9 CALLDATASIZE PUSH1 0x4 PUSH2 0xB30 JUMP JUMPDEST PUSH2 0x6AE JUMP JUMPDEST PUSH2 0xE7 PUSH2 0x1CC CALLDATASIZE PUSH1 0x4 PUSH2 0xB80 JUMP JUMPDEST PUSH2 0x72F JUMP JUMPDEST PUSH2 0xE7 PUSH2 0x1DF CALLDATASIZE PUSH1 0x4 PUSH2 0xAED JUMP JUMPDEST PUSH2 0x79E JUMP JUMPDEST PUSH2 0x109 PUSH2 0x1F2 CALLDATASIZE PUSH1 0x4 PUSH2 0xAED JUMP JUMPDEST PUSH1 0x3 PUSH1 0x20 MSTORE PUSH1 0x0 SWAP1 DUP2 MSTORE PUSH1 0x40 SWAP1 KECCAK256 SLOAD DUP2 JUMP JUMPDEST PUSH2 0xE7 PUSH2 0x212 CALLDATASIZE PUSH1 0x4 PUSH2 0xAED JUMP JUMPDEST PUSH2 0x813 JUMP JUMPDEST PUSH2 0xE7 PUSH2 0x225 CALLDATASIZE PUSH1 0x4 PUSH2 0xAED JUMP JUMPDEST PUSH2 0x88B JUMP JUMPDEST PUSH1 0x0 DUP2 DUP2 MSTORE PUSH1 0x4 PUSH1 0x20 MSTORE PUSH1 0x40 SWAP1 KECCAK256 SLOAD PUSH1 0xFF AND PUSH2 0x2A9 JUMPI PUSH1 0x40 MLOAD PUSH3 0x461BCD PUSH1 0xE5 SHL DUP2 MSTORE PUSH1 0x20 PUSH1 0x4 DUP3 ADD MSTORE PUSH1 0x33 PUSH1 0x24 DUP3 ADD MSTORE PUSH32 0x544653526577617264733A2054686973206973206E6F7420612076616C696420 PUSH1 0x44 DUP3 ADD MSTORE PUSH19 0x185DD85C9908185D081D1A19481B5BDB595B9D PUSH1 0x6A SHL PUSH1 0x64 DUP3 ADD MSTORE PUSH1 0x84 ADD JUMPDEST PUSH1 0x40 MLOAD DUP1 SWAP2 SUB SWAP1 REVERT JUMPDEST PUSH1 0x1 SLOAD PUSH1 0x40 MLOAD PUSH4 0x40C10F19 PUSH1 0xE0 SHL DUP2 MSTORE PUSH1 0x1 PUSH1 0x1 PUSH1 0xA0 SHL SUB DUP6 DUP2 AND PUSH1 0x4 DUP4 ADD MSTORE PUSH1 0x24 DUP3 ADD DUP6 SWAP1 MSTORE SWAP1 SWAP2 AND SWAP1 PUSH4 0x40C10F19 SWAP1 PUSH1 0x44 ADD PUSH1 0x20 PUSH1 0x40 MLOAD DUP1 DUP4 SUB DUP2 PUSH1 0x0 DUP8 GAS CALL ISZERO DUP1 ISZERO PUSH2 0x2FC JUMPI RETURNDATASIZE PUSH1 0x0 DUP1 RETURNDATACOPY RETURNDATASIZE PUSH1 0x0 REVERT JUMPDEST POP POP POP POP PUSH1 0x40 MLOAD RETURNDATASIZE PUSH1 0x1F NOT PUSH1 0x1F DUP3 ADD AND DUP3 ADD DUP1 PUSH1 0x40 MSTORE POP DUP2 ADD SWAP1 PUSH2 0x320 SWAP2 SWAP1 PUSH2 0xBA2 JUMP JUMPDEST PUSH2 0x329 JUMPI PUSH1 0x0 DUP1 REVERT JUMPDEST PUSH1 0x40 DUP1 MLOAD PUSH1 0x1 PUSH1 0x1 PUSH1 0xA0 SHL SUB DUP6 AND DUP2 MSTORE PUSH1 0x20 DUP2 ADD DUP4 SWAP1 MSTORE PUSH32 0xD60D243D470486585CCD84415C03A17E618114139A74153F8DFA63AF0053F005 SWAP2 ADD PUSH1 0x40 MLOAD DUP1 SWAP2 SUB SWAP1 LOG1 POP POP POP JUMP JUMPDEST CALLER PUSH1 0x0 DUP2 DUP2 MSTORE PUSH1 0x20 DUP2 SWAP1 MSTORE PUSH1 0x40 SWAP1 KECCAK256 SLOAD PUSH1 0xFF AND SWAP1 PUSH2 0x38F SWAP1 PUSH1 0x14 PUSH2 0x8F9 JUMP JUMPDEST PUSH1 0x40 MLOAD PUSH1 0x20 ADD PUSH2 0x39F SWAP2 SWAP1 PUSH2 0xBE3 JUMP JUMPDEST PUSH1 0x40 MLOAD PUSH1 0x20 DUP2 DUP4 SUB SUB DUP2 MSTORE SWAP1 PUSH1 0x40 MSTORE SWAP1 PUSH2 0x3CC JUMPI PUSH1 0x40 MLOAD PUSH3 0x461BCD PUSH1 0xE5 SHL DUP2 MSTORE PUSH1 0x4 ADD PUSH2 0x2A0 SWAP2 SWAP1 PUSH2 0xC39 JUMP JUMPDEST POP PUSH1 0x1 SLOAD PUSH1 0x1 PUSH1 0xA0 SHL SWAP1 DIV PUSH1 0xFF AND ISZERO PUSH2 0x427 JUMPI PUSH1 0x40 MLOAD PUSH3 0x461BCD PUSH1 0xE5 SHL DUP2 MSTORE PUSH1 0x20 PUSH1 0x4 DUP3 ADD MSTORE PUSH1 0x1C PUSH1 0x24 DUP3 ADD MSTORE PUSH32 0x52657761726473206172652063757272656E746C792070617573656400000000 PUSH1 0x44 DUP3 ADD MSTORE PUSH1 0x64 ADD PUSH2 0x2A0 JUMP JUMPDEST PUSH1 0x0 DUP2 DUP2 MSTORE PUSH1 0x2 PUSH1 0x20 MSTORE PUSH1 0x40 SWAP1 KECCAK256 SLOAD PUSH2 0x43F JUMPI PUSH1 0x0 DUP1 REVERT JUMPDEST PUSH1 0x1 SLOAD PUSH1 0x0 DUP3 DUP2 MSTORE PUSH1 0x3 PUSH1 0x20 MSTORE PUSH1 0x40 SWAP1 DUP2 SWAP1 KECCAK256 SLOAD SWAP1 MLOAD PUSH4 0x2770A7EB PUSH1 0xE2 SHL DUP2 MSTORE PUSH1 0x1 PUSH1 0x1 PUSH1 0xA0 SHL SUB DUP6 DUP2 AND PUSH1 0x4 DUP4 ADD MSTORE PUSH1 0x24 DUP3 ADD SWAP3 SWAP1 SWAP3 MSTORE SWAP2 AND SWAP1 PUSH4 0x9DC29FAC SWAP1 PUSH1 0x44 ADD PUSH1 0x20 PUSH1 0x40 MLOAD DUP1 DUP4 SUB DUP2 PUSH1 0x0 DUP8 GAS CALL ISZERO DUP1 ISZERO PUSH2 0x4A2 JUMPI RETURNDATASIZE PUSH1 0x0 DUP1 RETURNDATACOPY RETURNDATASIZE PUSH1 0x0 REVERT JUMPDEST POP POP POP POP PUSH1 0x40 MLOAD RETURNDATASIZE PUSH1 0x1F NOT PUSH1 0x1F DUP3 ADD AND DUP3 ADD DUP1 PUSH1 0x40 MSTORE POP DUP2 ADD SWAP1 PUSH2 0x4C6 SWAP2 SWAP1 PUSH2 0xBA2 JUMP JUMPDEST PUSH2 0x512 JUMPI PUSH1 0x40 MLOAD PUSH3 0x461BCD PUSH1 0xE5 SHL DUP2 MSTORE PUSH1 0x20 PUSH1 0x4 DUP3 ADD MSTORE PUSH1 0x1E PUSH1 0x24 DUP3 ADD MSTORE PUSH32 0x4E6F7420656E6F7567682054465320436F696E20666F72207265776172640000 PUSH1 0x44 DUP3 ADD MSTORE PUSH1 0x64 ADD PUSH2 0x2A0 JUMP JUMPDEST PUSH1 0x0 DUP2 DUP2 MSTORE PUSH1 0x2 PUSH1 0x20 MSTORE PUSH1 0x40 SWAP1 KECCAK256 SLOAD PUSH2 0x52D SWAP1 PUSH1 0x1 SWAP1 PUSH2 0xC82 JUMP JUMPDEST PUSH1 0x0 DUP3 DUP2 MSTORE PUSH1 0x2 PUSH1 0x20 SWAP1 DUP2 MSTORE PUSH1 0x40 SWAP2 DUP3 SWAP1 KECCAK256 SWAP3 SWAP1 SWAP3 SSTORE DUP1 MLOAD PUSH1 0x1 PUSH1 0x1 PUSH1 0xA0 SHL SUB DUP6 AND DUP2 MSTORE SWAP2 DUP3 ADD DUP4 SWAP1 MSTORE PUSH32 0x83B78188B13346B2FFB484DA70D42EE27DE7FBF9F2BD8045269E10ED643CCD76 SWAP2 ADD PUSH1 0x40 MLOAD DUP1 SWAP2 SUB SWAP1 LOG1 POP POP JUMP JUMPDEST CALLER PUSH1 0x0 DUP2 DUP2 MSTORE PUSH1 0x20 DUP2 SWAP1 MSTORE PUSH1 0x40 SWAP1 KECCAK256 SLOAD PUSH1 0xFF AND SWAP1 PUSH2 0x5A5 SWAP1 PUSH1 0x14 PUSH2 0x8F9 JUMP JUMPDEST PUSH1 0x40 MLOAD PUSH1 0x20 ADD PUSH2 0x5B5 SWAP2 SWAP1 PUSH2 0xBE3 JUMP JUMPDEST PUSH1 0x40 MLOAD PUSH1 0x20 DUP2 DUP4 SUB SUB DUP2 MSTORE SWAP1 PUSH1 0x40 MSTORE SWAP1 PUSH2 0x5E2 JUMPI PUSH1 0x40 MLOAD PUSH3 0x461BCD PUSH1 0xE5 SHL DUP2 MSTORE PUSH1 0x4 ADD PUSH2 0x2A0 SWAP2 SWAP1 PUSH2 0xC39 JUMP JUMPDEST POP PUSH1 0x1 PUSH1 0x1 PUSH1 0xA0 SHL SUB AND PUSH1 0x0 SWAP1 DUP2 MSTORE PUSH1 0x20 DUP2 SWAP1 MSTORE PUSH1 0x40 SWAP1 KECCAK256 DUP1 SLOAD PUSH1 0xFF NOT AND SWAP1 SSTORE JUMP JUMPDEST CALLER PUSH1 0x0 DUP2 DUP2 MSTORE PUSH1 0x20 DUP2 SWAP1 MSTORE PUSH1 0x40 SWAP1 KECCAK256 SLOAD PUSH1 0xFF AND SWAP1 PUSH2 0x623 SWAP1 PUSH1 0x14 PUSH2 0x8F9 JUMP JUMPDEST PUSH1 0x40 MLOAD PUSH1 0x20 ADD PUSH2 0x633 SWAP2 SWAP1 PUSH2 0xBE3 JUMP JUMPDEST PUSH1 0x40 MLOAD PUSH1 0x20 DUP2 DUP4 SUB SUB DUP2 MSTORE SWAP1 PUSH1 0x40 MSTORE SWAP1 PUSH2 0x660 JUMPI PUSH1 0x40 MLOAD PUSH3 0x461BCD PUSH1 0xE5 SHL DUP2 MSTORE PUSH1 0x4 ADD PUSH2 0x2A0 SWAP2 SWAP1 PUSH2 0xC39 JUMP JUMPDEST POP PUSH1 0x1 DUP1 SLOAD PUSH1 0xFF PUSH1 0xA0 SHL NOT AND PUSH1 0x1 PUSH1 0xA0 SHL DUP4 ISZERO ISZERO MUL OR SWAP1 SSTORE PUSH1 0x40 MLOAD CALLER DUP2 MSTORE PUSH32 0xF42B79F7755E1FE195FFE4B6DEDD32ACB3F379D48C664A958DD6F30FF8BACBF7 SWAP1 PUSH1 0x20 ADD PUSH1 0x40 MLOAD DUP1 SWAP2 SUB SWAP1 LOG1 POP JUMP JUMPDEST CALLER PUSH1 0x0 DUP2 DUP2 MSTORE PUSH1 0x20 DUP2 SWAP1 MSTORE PUSH1 0x40 SWAP1 KECCAK256 SLOAD PUSH1 0xFF AND SWAP1 PUSH2 0x6CD SWAP1 PUSH1 0x14 PUSH2 0x8F9 JUMP JUMPDEST PUSH1 0x40 MLOAD PUSH1 0x20 ADD PUSH2 0x6DD SWAP2 SWAP1 PUSH2 0xBE3 JUMP JUMPDEST PUSH1 0x40 MLOAD PUSH1 0x20 DUP2 DUP4 SUB SUB DUP2 MSTORE SWAP1 PUSH1 0x40 MSTORE SWAP1 PUSH2 0x70A JUMPI PUSH1 0x40 MLOAD PUSH3 0x461BCD PUSH1 0xE5 SHL DUP2 MSTORE PUSH1 0x4 ADD PUSH2 0x2A0 SWAP2 SWAP1 PUSH2 0xC39 JUMP JUMPDEST POP PUSH1 0x1 PUSH1 0x1 PUSH1 0xA0 SHL SUB AND PUSH1 0x0 SWAP1 DUP2 MSTORE PUSH1 0x20 DUP2 SWAP1 MSTORE PUSH1 0x40 SWAP1 KECCAK256 DUP1 SLOAD PUSH1 0xFF NOT AND PUSH1 0x1 OR SWAP1 SSTORE JUMP JUMPDEST CALLER PUSH1 0x0 DUP2 DUP2 MSTORE PUSH1 0x20 DUP2 SWAP1 MSTORE PUSH1 0x40 SWAP1 KECCAK256 SLOAD PUSH1 0xFF AND SWAP1 PUSH2 0x74E SWAP1 PUSH1 0x14 PUSH2 0x8F9 JUMP JUMPDEST PUSH1 0x40 MLOAD PUSH1 0x20 ADD PUSH2 0x75E SWAP2 SWAP1 PUSH2 0xBE3 JUMP JUMPDEST PUSH1 0x40 MLOAD PUSH1 0x20 DUP2 DUP4 SUB SUB DUP2 MSTORE SWAP1 PUSH1 0x40 MSTORE SWAP1 PUSH2 0x78B JUMPI PUSH1 0x40 MLOAD PUSH3 0x461BCD PUSH1 0xE5 SHL DUP2 MSTORE PUSH1 0x4 ADD PUSH2 0x2A0 SWAP2 SWAP1 PUSH2 0xC39 JUMP JUMPDEST POP PUSH1 0x0 SWAP2 DUP3 MSTORE PUSH1 0x2 PUSH1 0x20 MSTORE PUSH1 0x40 SWAP1 SWAP2 KECCAK256 SSTORE JUMP JUMPDEST CALLER PUSH1 0x0 DUP2 DUP2 MSTORE PUSH1 0x20 DUP2 SWAP1 MSTORE PUSH1 0x40 SWAP1 KECCAK256 SLOAD PUSH1 0xFF AND SWAP1 PUSH2 0x7BD SWAP1 PUSH1 0x14 PUSH2 0x8F9 JUMP JUMPDEST PUSH1 0x40 MLOAD PUSH1 0x20 ADD PUSH2 0x7CD SWAP2 SWAP1 PUSH2 0xBE3 JUMP JUMPDEST PUSH1 0x40 MLOAD PUSH1 0x20 DUP2 DUP4 SUB SUB DUP2 MSTORE SWAP1 PUSH1 0x40 MSTORE SWAP1 PUSH2 0x7FA JUMPI PUSH1 0x40 MLOAD PUSH3 0x461BCD PUSH1 0xE5 SHL DUP2 MSTORE PUSH1 0x4 ADD PUSH2 0x2A0 SWAP2 SWAP1 PUSH2 0xC39 JUMP JUMPDEST POP PUSH1 0x0 SWAP1 DUP2 MSTORE PUSH1 0x4 PUSH1 0x20 MSTORE PUSH1 0x40 SWAP1 KECCAK256 DUP1 SLOAD PUSH1 0xFF NOT AND SWAP1 SSTORE JUMP JUMPDEST CALLER PUSH1 0x0 DUP2 DUP2 MSTORE PUSH1 0x20 DUP2 SWAP1 MSTORE PUSH1 0x40 SWAP1 KECCAK256 SLOAD PUSH1 0xFF AND SWAP1 PUSH2 0x832 SWAP1 PUSH1 0x14 PUSH2 0x8F9 JUMP JUMPDEST PUSH1 0x40 MLOAD PUSH1 0x20 ADD PUSH2 0x842 SWAP2 SWAP1 PUSH2 0xBE3 JUMP JUMPDEST PUSH1 0x40 MLOAD PUSH1 0x20 DUP2 DUP4 SUB SUB DUP2 MSTORE SWAP1 PUSH1 0x40 MSTORE SWAP1 PUSH2 0x86F JUMPI PUSH1 0x40 MLOAD PUSH3 0x461BCD PUSH1 0xE5 SHL DUP2 MSTORE PUSH1 0x4 ADD PUSH2 0x2A0 SWAP2 SWAP1 PUSH2 0xC39 JUMP JUMPDEST POP PUSH1 0x0 SWAP1 DUP2 MSTORE PUSH1 0x4 PUSH1 0x20 MSTORE PUSH1 0x40 SWAP1 KECCAK256 DUP1 SLOAD PUSH1 0xFF NOT AND PUSH1 0x1 OR SWAP1 SSTORE JUMP JUMPDEST CALLER PUSH1 0x0 DUP2 DUP2 MSTORE PUSH1 0x20 DUP2 SWAP1 MSTORE PUSH1 0x40 SWAP1 KECCAK256 SLOAD PUSH1 0xFF AND SWAP1 PUSH2 0x8AA SWAP1 PUSH1 0x14 PUSH2 0x8F9 JUMP JUMPDEST PUSH1 0x40 MLOAD PUSH1 0x20 ADD PUSH2 0x8BA SWAP2 SWAP1 PUSH2 0xBE3 JUMP JUMPDEST PUSH1 0x40 MLOAD PUSH1 0x20 DUP2 DUP4 SUB SUB DUP2 MSTORE SWAP1 PUSH1 0x40 MSTORE SWAP1 PUSH2 0x8E7 JUMPI PUSH1 0x40 MLOAD PUSH3 0x461BCD PUSH1 0xE5 SHL DUP2 MSTORE PUSH1 0x4 ADD PUSH2 0x2A0 SWAP2 SWAP1 PUSH2 0xC39 JUMP JUMPDEST POP PUSH1 0x0 SWAP1 DUP2 MSTORE PUSH1 0x2 PUSH1 0x20 MSTORE PUSH1 0x40 DUP2 KECCAK256 SSTORE JUMP JUMPDEST PUSH1 0x60 PUSH1 0x0 PUSH2 0x908 DUP4 PUSH1 0x2 PUSH2 0xC95 JUMP JUMPDEST PUSH2 0x913 SWAP1 PUSH1 0x2 PUSH2 0xCAC JUMP JUMPDEST PUSH8 0xFFFFFFFFFFFFFFFF DUP2 GT ISZERO PUSH2 0x92B JUMPI PUSH2 0x92B PUSH2 0xCBF JUMP JUMPDEST PUSH1 0x40 MLOAD SWAP1 DUP1 DUP3 MSTORE DUP1 PUSH1 0x1F ADD PUSH1 0x1F NOT AND PUSH1 0x20 ADD DUP3 ADD PUSH1 0x40 MSTORE DUP1 ISZERO PUSH2 0x955 JUMPI PUSH1 0x20 DUP3 ADD DUP2 DUP1 CALLDATASIZE DUP4 CALLDATACOPY ADD SWAP1 POP JUMPDEST POP SWAP1 POP PUSH1 0x3 PUSH1 0xFC SHL DUP2 PUSH1 0x0 DUP2 MLOAD DUP2 LT PUSH2 0x970 JUMPI PUSH2 0x970 PUSH2 0xCD5 JUMP JUMPDEST PUSH1 0x20 ADD ADD SWAP1 PUSH1 0x1 PUSH1 0x1 PUSH1 0xF8 SHL SUB NOT AND SWAP1 DUP2 PUSH1 0x0 BYTE SWAP1 MSTORE8 POP PUSH1 0xF PUSH1 0xFB SHL DUP2 PUSH1 0x1 DUP2 MLOAD DUP2 LT PUSH2 0x99F JUMPI PUSH2 0x99F PUSH2 0xCD5 JUMP JUMPDEST PUSH1 0x20 ADD ADD SWAP1 PUSH1 0x1 PUSH1 0x1 PUSH1 0xF8 SHL SUB NOT AND SWAP1 DUP2 PUSH1 0x0 BYTE SWAP1 MSTORE8 POP PUSH1 0x0 PUSH2 0x9C3 DUP5 PUSH1 0x2 PUSH2 0xC95 JUMP JUMPDEST PUSH2 0x9CE SWAP1 PUSH1 0x1 PUSH2 0xCAC JUMP JUMPDEST SWAP1 POP JUMPDEST PUSH1 0x1 DUP2 GT ISZERO PUSH2 0xA46 JUMPI PUSH16 0x181899199A1A9B1B9C1CB0B131B232B3 PUSH1 0x81 SHL DUP6 PUSH1 0xF AND PUSH1 0x10 DUP2 LT PUSH2 0xA02 JUMPI PUSH2 0xA02 PUSH2 0xCD5 JUMP JUMPDEST BYTE PUSH1 0xF8 SHL DUP3 DUP3 DUP2 MLOAD DUP2 LT PUSH2 0xA18 JUMPI PUSH2 0xA18 PUSH2 0xCD5 JUMP JUMPDEST PUSH1 0x20 ADD ADD SWAP1 PUSH1 0x1 PUSH1 0x1 PUSH1 0xF8 SHL SUB NOT AND SWAP1 DUP2 PUSH1 0x0 BYTE SWAP1 MSTORE8 POP PUSH1 0x4 SWAP5 SWAP1 SWAP5 SHR SWAP4 PUSH2 0xA3F DUP2 PUSH2 0xCEB JUMP JUMPDEST SWAP1 POP PUSH2 0x9D1 JUMP JUMPDEST POP DUP4 ISZERO PUSH2 0xA95 JUMPI PUSH1 0x40 MLOAD PUSH3 0x461BCD PUSH1 0xE5 SHL DUP2 MSTORE PUSH1 0x20 PUSH1 0x4 DUP3 ADD DUP2 SWAP1 MSTORE PUSH1 0x24 DUP3 ADD MSTORE PUSH32 0x537472696E67733A20686578206C656E67746820696E73756666696369656E74 PUSH1 0x44 DUP3 ADD MSTORE PUSH1 0x64 ADD PUSH2 0x2A0 JUMP JUMPDEST SWAP1 POP JUMPDEST SWAP3 SWAP2 POP POP JUMP JUMPDEST DUP1 CALLDATALOAD PUSH1 0x1 PUSH1 0x1 PUSH1 0xA0 SHL SUB DUP2 AND DUP2 EQ PUSH2 0xAB5 JUMPI PUSH1 0x0 DUP1 REVERT JUMPDEST SWAP2 SWAP1 POP JUMP JUMPDEST PUSH1 0x0 DUP1 PUSH1 0x0 PUSH1 0x60 DUP5 DUP7 SUB SLT ISZERO PUSH2 0xACF JUMPI PUSH1 0x0 DUP1 REVERT JUMPDEST PUSH2 0xAD8 DUP5 PUSH2 0xA9E JUMP JUMPDEST SWAP6 PUSH1 0x20 DUP6 ADD CALLDATALOAD SWAP6 POP PUSH1 0x40 SWAP1 SWAP5 ADD CALLDATALOAD SWAP4 SWAP3 POP POP POP JUMP JUMPDEST PUSH1 0x0 PUSH1 0x20 DUP3 DUP5 SUB SLT ISZERO PUSH2 0xAFF JUMPI PUSH1 0x0 DUP1 REVERT JUMPDEST POP CALLDATALOAD SWAP2 SWAP1 POP JUMP JUMPDEST PUSH1 0x0 DUP1 PUSH1 0x40 DUP4 DUP6 SUB SLT ISZERO PUSH2 0xB19 JUMPI PUSH1 0x0 DUP1 REVERT JUMPDEST PUSH2 0xB22 DUP4 PUSH2 0xA9E JUMP JUMPDEST SWAP5 PUSH1 0x20 SWAP4 SWAP1 SWAP4 ADD CALLDATALOAD SWAP4 POP POP POP JUMP JUMPDEST PUSH1 0x0 PUSH1 0x20 DUP3 DUP5 SUB SLT ISZERO PUSH2 0xB42 JUMPI PUSH1 0x0 DUP1 REVERT JUMPDEST PUSH2 0xB4B DUP3 PUSH2 0xA9E JUMP JUMPDEST SWAP4 SWAP3 POP POP POP JUMP JUMPDEST DUP1 ISZERO ISZERO DUP2 EQ PUSH2 0xB60 JUMPI PUSH1 0x0 DUP1 REVERT JUMPDEST POP JUMP JUMPDEST PUSH1 0x0 PUSH1 0x20 DUP3 DUP5 SUB SLT ISZERO PUSH2 0xB75 JUMPI PUSH1 0x0 DUP1 REVERT JUMPDEST DUP2 CALLDATALOAD PUSH2 0xA95 DUP2 PUSH2 0xB52 JUMP JUMPDEST PUSH1 0x0 DUP1 PUSH1 0x40 DUP4 DUP6 SUB SLT ISZERO PUSH2 0xB93 JUMPI PUSH1 0x0 DUP1 REVERT JUMPDEST POP POP DUP1 CALLDATALOAD SWAP3 PUSH1 0x20 SWAP1 SWAP2 ADD CALLDATALOAD SWAP2 POP JUMP JUMPDEST PUSH1 0x0 PUSH1 0x20 DUP3 DUP5 SUB SLT ISZERO PUSH2 0xBB4 JUMPI PUSH1 0x0 DUP1 REVERT JUMPDEST DUP2 MLOAD PUSH2 0xA95 DUP2 PUSH2 0xB52 JUMP JUMPDEST PUSH1 0x0 JUMPDEST DUP4 DUP2 LT ISZERO PUSH2 0xBDA JUMPI DUP2 DUP2 ADD MLOAD DUP4 DUP3 ADD MSTORE PUSH1 0x20 ADD PUSH2 0xBC2 JUMP JUMPDEST POP POP PUSH1 0x0 SWAP2 ADD MSTORE JUMP JUMPDEST PUSH32 0x544653526577617264733A2054686973206973206E6F7420616E2061646D696E DUP2 MSTORE PUSH8 0x2061646472657373 PUSH1 0xC0 SHL PUSH1 0x20 DUP3 ADD MSTORE PUSH1 0x0 DUP3 MLOAD PUSH2 0xC2C DUP2 PUSH1 0x28 DUP6 ADD PUSH1 0x20 DUP8 ADD PUSH2 0xBBF JUMP JUMPDEST SWAP2 SWAP1 SWAP2 ADD PUSH1 0x28 ADD SWAP3 SWAP2 POP POP JUMP JUMPDEST PUSH1 0x20 DUP2 MSTORE PUSH1 0x0 DUP3 MLOAD DUP1 PUSH1 0x20 DUP5 ADD MSTORE PUSH2 0xC58 DUP2 PUSH1 0x40 DUP6 ADD PUSH1 0x20 DUP8 ADD PUSH2 0xBBF JUMP JUMPDEST PUSH1 0x1F ADD PUSH1 0x1F NOT AND SWAP2 SWAP1 SWAP2 ADD PUSH1 0x40 ADD SWAP3 SWAP2 POP POP JUMP JUMPDEST PUSH4 0x4E487B71 PUSH1 0xE0 SHL PUSH1 0x0 MSTORE PUSH1 0x11 PUSH1 0x4 MSTORE PUSH1 0x24 PUSH1 0x0 REVERT JUMPDEST DUP2 DUP2 SUB DUP2 DUP2 GT ISZERO PUSH2 0xA98 JUMPI PUSH2 0xA98 PUSH2 0xC6C JUMP JUMPDEST DUP1 DUP3 MUL DUP2 ISZERO DUP3 DUP3 DIV DUP5 EQ OR PUSH2 0xA98 JUMPI PUSH2 0xA98 PUSH2 0xC6C JUMP JUMPDEST DUP1 DUP3 ADD DUP1 DUP3 GT ISZERO PUSH2 0xA98 JUMPI PUSH2 0xA98 PUSH2 0xC6C JUMP JUMPDEST PUSH4 0x4E487B71 PUSH1 0xE0 SHL PUSH1 0x0 MSTORE PUSH1 0x41 PUSH1 0x4 MSTORE PUSH1 0x24 PUSH1 0x0 REVERT JUMPDEST PUSH4 0x4E487B71 PUSH1 0xE0 SHL PUSH1 0x0 MSTORE PUSH1 0x32 PUSH1 0x4 MSTORE PUSH1 0x24 PUSH1 0x0 REVERT JUMPDEST PUSH1 0x0 DUP2 PUSH2 0xCFA JUMPI PUSH2 0xCFA PUSH2 0xC6C JUMP JUMPDEST POP PUSH1 0x0 NOT ADD SWAP1 JUMP INVALID LOG2 PUSH5 0x6970667358 0x22 SLT KECCAK256 0xAD 0xB3 PUSH26 0x1F5D1928AFA29DB055648FFCA185E733141064F780E415307B29 PUSH12 0x507764736F6C634300081300 CALLER ",
  "sha1": "db2a1aa21a307a7b0f05c08ee86bb7c549295588",
  "source": "pragma solidity 0.8.19;\n\nimport \"@openzeppelin/contracts/utils/Strings.sol\";\nimport \"./TFSCoin.sol\";\n\ncontract TFSRewards {\n\n    mapping(address => bool) public isAdmin;\n    TFSCoin coinContract;\n\n    constructor(address _coinContract) {\n        coinContract = TFSCoin(_coinContract);\n        isAdmin[msg.sender] = true;\n        rewardIDToRewardCount[0] = 100;\n        rewardIDToRewardPrice[0] = 15;\n    }\n\n    bool rewardsPaused;\n\n    mapping(uint256 => uint256) public rewardIDToRewardCount;\n    mapping(uint256 => uint256) public rewardIDToRewardPrice;\n    mapping(uint256 => bool) public availableAwards;\n\n    event rewardClaimed(address claimee, uint256 rewardID);\n    event rewardsHalted(address who);\n    event awardedCoins(address who, uint256 awardID);\n\n    modifier onlyAdmin {\n        require(isAdmin[msg.sender], string.concat(\"TFSRewards: This is not an admin address\", Strings.toHexString(uint256(uint160(msg.sender)), 20)));\n        _;\n    }\n\n    function claimReward(address employeeAddress, uint256 rewardID) onlyAdmin public {\n        require(!rewardsPaused, \"Rewards are currently paused\");\n        require(rewardIDToRewardCount[rewardID] > 0);\n        require(coinContract.burn(employeeAddress, rewardIDToRewardPrice[rewardID]), \"Not enough TFS Coin for reward\");\n        rewardIDToRewardCount[rewardID] = rewardIDToRewardCount[rewardID] - 1;\n        emit rewardClaimed(employeeAddress, rewardID);\n    }\n\n    function awardCoins(address employeeAddress, uint256 coins, uint256 awardID) public {\n        require(availableAwards[awardID], \"TFSRewards: This is not a valid award at the moment\");\n        require(coinContract.mint(employeeAddress, coins));\n        emit awardedCoins(employeeAddress, awardID);\n    }\n    \n    function addAward(uint256 awardID) onlyAdmin public {\n        availableAwards[awardID] = true;\n    }\n\n    function removeAward(uint256 awardID) onlyAdmin public {\n        availableAwards[awardID] = false;\n    }\n\n    function addReward(uint256 rewardID, uint256 rewardCount) onlyAdmin public {\n        rewardIDToRewardCount[rewardID] = rewardCount;\n    }\n\n    function removeReward(uint256 rewardID) onlyAdmin public {\n        rewardIDToRewardCount[rewardID] = 0;\n    }\n\n    function pauseRewards(bool _rewardsPaused) onlyAdmin public {\n        rewardsPaused = _rewardsPaused;\n        emit rewardsHalted(msg.sender);\n    }\n\n    function addAdmin(address newAdmin) onlyAdmin public {\n        isAdmin[newAdmin] = true;\n    }\n\n    function removeAdmin(address newAdmin) onlyAdmin public {\n        isAdmin[newAdmin] = false;\n    }\n\n}",
  "sourcePath": "contracts/TFSRewards.sol",
  "type": "contract"
}