{
  "abi": [
    {
      "inputs": [
        {
          "internalType": "address",
          "name": "_coinContract",
          "type": "address"
        }
      ],
      "stateMutability": "nonpayable",
      "type": "constructor"
    },
    {
      "anonymous": false,
      "inputs": [
        {
          "indexed": false,
          "internalType": "address",
          "name": "claimee",
          "type": "address"
        }
      ],
      "name": "rewardClaimed",
      "type": "event"
    },
    {
      "anonymous": false,
      "inputs": [
        {
          "indexed": false,
          "internalType": "address",
          "name": "who",
          "type": "address"
        }
      ],
      "name": "rewardsHalted",
      "type": "event"
    },
    {
      "inputs": [
        {
          "internalType": "address",
          "name": "newAdmin",
          "type": "address"
        }
      ],
      "name": "addAdmin",
      "outputs": [],
      "stateMutability": "nonpayable",
      "type": "function"
    },
    {
      "inputs": [
        {
          "internalType": "uint256",
          "name": "rewardID",
          "type": "uint256"
        },
        {
          "internalType": "uint256",
          "name": "rewardCount",
          "type": "uint256"
        }
      ],
      "name": "addReward",
      "outputs": [],
      "stateMutability": "nonpayable",
      "type": "function"
    },
    {
      "inputs": [
        {
          "internalType": "address",
          "name": "employeeAddress",
          "type": "address"
        },
        {
          "internalType": "uint256",
          "name": "rewardID",
          "type": "uint256"
        }
      ],
      "name": "claimReward",
      "outputs": [],
      "stateMutability": "nonpayable",
      "type": "function"
    },
    {
      "inputs": [
        {
          "internalType": "address",
          "name": "",
          "type": "address"
        }
      ],
      "name": "isAdmin",
      "outputs": [
        {
          "internalType": "bool",
          "name": "",
          "type": "bool"
        }
      ],
      "stateMutability": "view",
      "type": "function"
    },
    {
      "inputs": [
        {
          "internalType": "bool",
          "name": "_rewardsPaused",
          "type": "bool"
        }
      ],
      "name": "pauseRewards",
      "outputs": [],
      "stateMutability": "nonpayable",
      "type": "function"
    },
    {
      "inputs": [
        {
          "internalType": "address",
          "name": "newAdmin",
          "type": "address"
        }
      ],
      "name": "removeAdmin",
      "outputs": [],
      "stateMutability": "nonpayable",
      "type": "function"
    },
    {
      "inputs": [
        {
          "internalType": "uint256",
          "name": "rewardID",
          "type": "uint256"
        }
      ],
      "name": "removeReward",
      "outputs": [],
      "stateMutability": "nonpayable",
      "type": "function"
    },
    {
      "inputs": [
        {
          "internalType": "uint256",
          "name": "",
          "type": "uint256"
        }
      ],
      "name": "rewardIDToRewardCount",
      "outputs": [
        {
          "internalType": "uint256",
          "name": "",
          "type": "uint256"
        }
      ],
      "stateMutability": "view",
      "type": "function"
    },
    {
      "inputs": [
        {
          "internalType": "uint256",
          "name": "",
          "type": "uint256"
        }
      ],
      "name": "rewardIDToRewardPrice",
      "outputs": [
        {
          "internalType": "uint256",
          "name": "",
          "type": "uint256"
        }
      ],
      "stateMutability": "view",
      "type": "function"
    }
  ],
  "bytecode": "608060405234801561001057600080fd5b5060405161075638038061075683398101604081905261002f916100bd565b600180546001600160a01b0319166001600160a01b0392909216919091178155336000908152602081815260408220805460ff1916909317909255805260647fac33ff75c19e70fe83507db0d683fd3465c996598dc972688b7ace676c89077b5560039052600f7f3617319a054d772f909f7c479a2cebe5066e836a939412e32403c99029b92eff556100ed565b6000602082840312156100cf57600080fd5b81516001600160a01b03811681146100e657600080fd5b9392505050565b61065a806100fc6000396000f3fe608060405234801561001057600080fd5b50600436106100935760003560e01c806331b7558b1161006657806331b7558b14610126578063704802751461013957806375c93bb91461014c578063b1ddf0751461015f578063c553173f1461017f57600080fd5b806307bdb18614610098578063174e31c4146100cb5780631785f53c146100e057806324d7806c146100f3575b600080fd5b6100b86100a63660046104e0565b60026020526000908152604090205481565b6040519081526020015b60405180910390f35b6100de6100d9366004610515565b610192565b005b6100de6100ee36600461053f565b610340565b61011661010136600461053f565b60006020819052908152604090205460ff1681565b60405190151581526020016100c2565b6100de610134366004610572565b610390565b6100de61014736600461053f565b61040c565b6100de61015a36600461058f565b61045f565b6100b861016d3660046104e0565b60036020526000908152604090205481565b6100de61018d3660046104e0565b6104a0565b600154600160a01b900460ff16156101f15760405162461bcd60e51b815260206004820152601c60248201527f52657761726473206172652063757272656e746c79207061757365640000000060448201526064015b60405180910390fd5b60008181526002602052604090205461020957600080fd5b60015460008281526003602052604090819020549051632770a7eb60e21b81526001600160a01b0385811660048301526024820192909252911690639dc29fac906044016020604051808303816000875af115801561026c573d6000803e3d6000fd5b505050506040513d601f19601f8201168201806040525081019061029091906105b1565b6102dc5760405162461bcd60e51b815260206004820152601e60248201527f4e6f7420656e6f7567682054465320436f696e20666f7220726577617264000060448201526064016101e8565b6000818152600260205260409020546102f7906001906105ce565b60008281526002602090815260409182902092909255513381527f29e197049bed9d0535b455fed2dc45b916a0de23b14a030659e8220ee42b2f20910160405180910390a15050565b3360009081526020819052604090205460ff1661036f5760405162461bcd60e51b81526004016101e8906105f5565b6001600160a01b03166000908152602081905260409020805460ff19169055565b3360009081526020819052604090205460ff166103bf5760405162461bcd60e51b81526004016101e8906105f5565b6001805460ff60a01b1916600160a01b831515021790556040513381527ff42b79f7755e1fe195ffe4b6dedd32acb3f379d48c664a958dd6f30ff8bacbf79060200160405180910390a150565b3360009081526020819052604090205460ff1661043b5760405162461bcd60e51b81526004016101e8906105f5565b6001600160a01b03166000908152602081905260409020805460ff19166001179055565b3360009081526020819052604090205460ff1661048e5760405162461bcd60e51b81526004016101e8906105f5565b60009182526002602052604090912055565b3360009081526020819052604090205460ff166104cf5760405162461bcd60e51b81526004016101e8906105f5565b600090815260026020526040812055565b6000602082840312156104f257600080fd5b5035919050565b80356001600160a01b038116811461051057600080fd5b919050565b6000806040838503121561052857600080fd5b610531836104f9565b946020939093013593505050565b60006020828403121561055157600080fd5b61055a826104f9565b9392505050565b801515811461056f57600080fd5b50565b60006020828403121561058457600080fd5b813561055a81610561565b600080604083850312156105a257600080fd5b50508035926020909101359150565b6000602082840312156105c357600080fd5b815161055a81610561565b818103818111156105ef57634e487b7160e01b600052601160045260246000fd5b92915050565b602080825260159082015274596f7520617265206e6f7420616e2061646d696e2160581b60408201526060019056fea264697066735822122083df8d9b8e5b4b27f7b7eaf8211fc662431172ecf864c2240a4ac6ce57434e2a64736f6c63430008130033",
  "bytecodeSha1": "24a6fa179211ac67b0720deaa5713580a4deec41",
  "compiler": {
    "evm_version": "istanbul",
    "optimizer": {
      "enabled": true,
      "runs": 200
    },
    "version": "0.8.19+commit.7dd6d404"
  },
  "contractName": "TFSRewards",
  "language": "Solidity",
  "natspec": {
    "kind": "dev",
    "methods": {},
    "version": 1
  },
  "opcodes": "PUSH1 0x80 PUSH1 0x40 MSTORE CALLVALUE DUP1 ISZERO PUSH2 0x10 JUMPI PUSH1 0x0 DUP1 REVERT JUMPDEST POP PUSH1 0x4 CALLDATASIZE LT PUSH2 0x93 JUMPI PUSH1 0x0 CALLDATALOAD PUSH1 0xE0 SHR DUP1 PUSH4 0x31B7558B GT PUSH2 0x66 JUMPI DUP1 PUSH4 0x31B7558B EQ PUSH2 0x126 JUMPI DUP1 PUSH4 0x70480275 EQ PUSH2 0x139 JUMPI DUP1 PUSH4 0x75C93BB9 EQ PUSH2 0x14C JUMPI DUP1 PUSH4 0xB1DDF075 EQ PUSH2 0x15F JUMPI DUP1 PUSH4 0xC553173F EQ PUSH2 0x17F JUMPI PUSH1 0x0 DUP1 REVERT JUMPDEST DUP1 PUSH4 0x7BDB186 EQ PUSH2 0x98 JUMPI DUP1 PUSH4 0x174E31C4 EQ PUSH2 0xCB JUMPI DUP1 PUSH4 0x1785F53C EQ PUSH2 0xE0 JUMPI DUP1 PUSH4 0x24D7806C EQ PUSH2 0xF3 JUMPI JUMPDEST PUSH1 0x0 DUP1 REVERT JUMPDEST PUSH2 0xB8 PUSH2 0xA6 CALLDATASIZE PUSH1 0x4 PUSH2 0x4E0 JUMP JUMPDEST PUSH1 0x2 PUSH1 0x20 MSTORE PUSH1 0x0 SWAP1 DUP2 MSTORE PUSH1 0x40 SWAP1 KECCAK256 SLOAD DUP2 JUMP JUMPDEST PUSH1 0x40 MLOAD SWAP1 DUP2 MSTORE PUSH1 0x20 ADD JUMPDEST PUSH1 0x40 MLOAD DUP1 SWAP2 SUB SWAP1 RETURN JUMPDEST PUSH2 0xDE PUSH2 0xD9 CALLDATASIZE PUSH1 0x4 PUSH2 0x515 JUMP JUMPDEST PUSH2 0x192 JUMP JUMPDEST STOP JUMPDEST PUSH2 0xDE PUSH2 0xEE CALLDATASIZE PUSH1 0x4 PUSH2 0x53F JUMP JUMPDEST PUSH2 0x340 JUMP JUMPDEST PUSH2 0x116 PUSH2 0x101 CALLDATASIZE PUSH1 0x4 PUSH2 0x53F JUMP JUMPDEST PUSH1 0x0 PUSH1 0x20 DUP2 SWAP1 MSTORE SWAP1 DUP2 MSTORE PUSH1 0x40 SWAP1 KECCAK256 SLOAD PUSH1 0xFF AND DUP2 JUMP JUMPDEST PUSH1 0x40 MLOAD SWAP1 ISZERO ISZERO DUP2 MSTORE PUSH1 0x20 ADD PUSH2 0xC2 JUMP JUMPDEST PUSH2 0xDE PUSH2 0x134 CALLDATASIZE PUSH1 0x4 PUSH2 0x572 JUMP JUMPDEST PUSH2 0x390 JUMP JUMPDEST PUSH2 0xDE PUSH2 0x147 CALLDATASIZE PUSH1 0x4 PUSH2 0x53F JUMP JUMPDEST PUSH2 0x40C JUMP JUMPDEST PUSH2 0xDE PUSH2 0x15A CALLDATASIZE PUSH1 0x4 PUSH2 0x58F JUMP JUMPDEST PUSH2 0x45F JUMP JUMPDEST PUSH2 0xB8 PUSH2 0x16D CALLDATASIZE PUSH1 0x4 PUSH2 0x4E0 JUMP JUMPDEST PUSH1 0x3 PUSH1 0x20 MSTORE PUSH1 0x0 SWAP1 DUP2 MSTORE PUSH1 0x40 SWAP1 KECCAK256 SLOAD DUP2 JUMP JUMPDEST PUSH2 0xDE PUSH2 0x18D CALLDATASIZE PUSH1 0x4 PUSH2 0x4E0 JUMP JUMPDEST PUSH2 0x4A0 JUMP JUMPDEST PUSH1 0x1 SLOAD PUSH1 0x1 PUSH1 0xA0 SHL SWAP1 DIV PUSH1 0xFF AND ISZERO PUSH2 0x1F1 JUMPI PUSH1 0x40 MLOAD PUSH3 0x461BCD PUSH1 0xE5 SHL DUP2 MSTORE PUSH1 0x20 PUSH1 0x4 DUP3 ADD MSTORE PUSH1 0x1C PUSH1 0x24 DUP3 ADD MSTORE PUSH32 0x52657761726473206172652063757272656E746C792070617573656400000000 PUSH1 0x44 DUP3 ADD MSTORE PUSH1 0x64 ADD JUMPDEST PUSH1 0x40 MLOAD DUP1 SWAP2 SUB SWAP1 REVERT JUMPDEST PUSH1 0x0 DUP2 DUP2 MSTORE PUSH1 0x2 PUSH1 0x20 MSTORE PUSH1 0x40 SWAP1 KECCAK256 SLOAD PUSH2 0x209 JUMPI PUSH1 0x0 DUP1 REVERT JUMPDEST PUSH1 0x1 SLOAD PUSH1 0x0 DUP3 DUP2 MSTORE PUSH1 0x3 PUSH1 0x20 MSTORE PUSH1 0x40 SWAP1 DUP2 SWAP1 KECCAK256 SLOAD SWAP1 MLOAD PUSH4 0x2770A7EB PUSH1 0xE2 SHL DUP2 MSTORE PUSH1 0x1 PUSH1 0x1 PUSH1 0xA0 SHL SUB DUP6 DUP2 AND PUSH1 0x4 DUP4 ADD MSTORE PUSH1 0x24 DUP3 ADD SWAP3 SWAP1 SWAP3 MSTORE SWAP2 AND SWAP1 PUSH4 0x9DC29FAC SWAP1 PUSH1 0x44 ADD PUSH1 0x20 PUSH1 0x40 MLOAD DUP1 DUP4 SUB DUP2 PUSH1 0x0 DUP8 GAS CALL ISZERO DUP1 ISZERO PUSH2 0x26C JUMPI RETURNDATASIZE PUSH1 0x0 DUP1 RETURNDATACOPY RETURNDATASIZE PUSH1 0x0 REVERT JUMPDEST POP POP POP POP PUSH1 0x40 MLOAD RETURNDATASIZE PUSH1 0x1F NOT PUSH1 0x1F DUP3 ADD AND DUP3 ADD DUP1 PUSH1 0x40 MSTORE POP DUP2 ADD SWAP1 PUSH2 0x290 SWAP2 SWAP1 PUSH2 0x5B1 JUMP JUMPDEST PUSH2 0x2DC JUMPI PUSH1 0x40 MLOAD PUSH3 0x461BCD PUSH1 0xE5 SHL DUP2 MSTORE PUSH1 0x20 PUSH1 0x4 DUP3 ADD MSTORE PUSH1 0x1E PUSH1 0x24 DUP3 ADD MSTORE PUSH32 0x4E6F7420656E6F7567682054465320436F696E20666F72207265776172640000 PUSH1 0x44 DUP3 ADD MSTORE PUSH1 0x64 ADD PUSH2 0x1E8 JUMP JUMPDEST PUSH1 0x0 DUP2 DUP2 MSTORE PUSH1 0x2 PUSH1 0x20 MSTORE PUSH1 0x40 SWAP1 KECCAK256 SLOAD PUSH2 0x2F7 SWAP1 PUSH1 0x1 SWAP1 PUSH2 0x5CE JUMP JUMPDEST PUSH1 0x0 DUP3 DUP2 MSTORE PUSH1 0x2 PUSH1 0x20 SWAP1 DUP2 MSTORE PUSH1 0x40 SWAP2 DUP3 SWAP1 KECCAK256 SWAP3 SWAP1 SWAP3 SSTORE MLOAD CALLER DUP2 MSTORE PUSH32 0x29E197049BED9D0535B455FED2DC45B916A0DE23B14A030659E8220EE42B2F20 SWAP2 ADD PUSH1 0x40 MLOAD DUP1 SWAP2 SUB SWAP1 LOG1 POP POP JUMP JUMPDEST CALLER PUSH1 0x0 SWAP1 DUP2 MSTORE PUSH1 0x20 DUP2 SWAP1 MSTORE PUSH1 0x40 SWAP1 KECCAK256 SLOAD PUSH1 0xFF AND PUSH2 0x36F JUMPI PUSH1 0x40 MLOAD PUSH3 0x461BCD PUSH1 0xE5 SHL DUP2 MSTORE PUSH1 0x4 ADD PUSH2 0x1E8 SWAP1 PUSH2 0x5F5 JUMP JUMPDEST PUSH1 0x1 PUSH1 0x1 PUSH1 0xA0 SHL SUB AND PUSH1 0x0 SWAP1 DUP2 MSTORE PUSH1 0x20 DUP2 SWAP1 MSTORE PUSH1 0x40 SWAP1 KECCAK256 DUP1 SLOAD PUSH1 0xFF NOT AND SWAP1 SSTORE JUMP JUMPDEST CALLER PUSH1 0x0 SWAP1 DUP2 MSTORE PUSH1 0x20 DUP2 SWAP1 MSTORE PUSH1 0x40 SWAP1 KECCAK256 SLOAD PUSH1 0xFF AND PUSH2 0x3BF JUMPI PUSH1 0x40 MLOAD PUSH3 0x461BCD PUSH1 0xE5 SHL DUP2 MSTORE PUSH1 0x4 ADD PUSH2 0x1E8 SWAP1 PUSH2 0x5F5 JUMP JUMPDEST PUSH1 0x1 DUP1 SLOAD PUSH1 0xFF PUSH1 0xA0 SHL NOT AND PUSH1 0x1 PUSH1 0xA0 SHL DUP4 ISZERO ISZERO MUL OR SWAP1 SSTORE PUSH1 0x40 MLOAD CALLER DUP2 MSTORE PUSH32 0xF42B79F7755E1FE195FFE4B6DEDD32ACB3F379D48C664A958DD6F30FF8BACBF7 SWAP1 PUSH1 0x20 ADD PUSH1 0x40 MLOAD DUP1 SWAP2 SUB SWAP1 LOG1 POP JUMP JUMPDEST CALLER PUSH1 0x0 SWAP1 DUP2 MSTORE PUSH1 0x20 DUP2 SWAP1 MSTORE PUSH1 0x40 SWAP1 KECCAK256 SLOAD PUSH1 0xFF AND PUSH2 0x43B JUMPI PUSH1 0x40 MLOAD PUSH3 0x461BCD PUSH1 0xE5 SHL DUP2 MSTORE PUSH1 0x4 ADD PUSH2 0x1E8 SWAP1 PUSH2 0x5F5 JUMP JUMPDEST PUSH1 0x1 PUSH1 0x1 PUSH1 0xA0 SHL SUB AND PUSH1 0x0 SWAP1 DUP2 MSTORE PUSH1 0x20 DUP2 SWAP1 MSTORE PUSH1 0x40 SWAP1 KECCAK256 DUP1 SLOAD PUSH1 0xFF NOT AND PUSH1 0x1 OR SWAP1 SSTORE JUMP JUMPDEST CALLER PUSH1 0x0 SWAP1 DUP2 MSTORE PUSH1 0x20 DUP2 SWAP1 MSTORE PUSH1 0x40 SWAP1 KECCAK256 SLOAD PUSH1 0xFF AND PUSH2 0x48E JUMPI PUSH1 0x40 MLOAD PUSH3 0x461BCD PUSH1 0xE5 SHL DUP2 MSTORE PUSH1 0x4 ADD PUSH2 0x1E8 SWAP1 PUSH2 0x5F5 JUMP JUMPDEST PUSH1 0x0 SWAP2 DUP3 MSTORE PUSH1 0x2 PUSH1 0x20 MSTORE PUSH1 0x40 SWAP1 SWAP2 KECCAK256 SSTORE JUMP JUMPDEST CALLER PUSH1 0x0 SWAP1 DUP2 MSTORE PUSH1 0x20 DUP2 SWAP1 MSTORE PUSH1 0x40 SWAP1 KECCAK256 SLOAD PUSH1 0xFF AND PUSH2 0x4CF JUMPI PUSH1 0x40 MLOAD PUSH3 0x461BCD PUSH1 0xE5 SHL DUP2 MSTORE PUSH1 0x4 ADD PUSH2 0x1E8 SWAP1 PUSH2 0x5F5 JUMP JUMPDEST PUSH1 0x0 SWAP1 DUP2 MSTORE PUSH1 0x2 PUSH1 0x20 MSTORE PUSH1 0x40 DUP2 KECCAK256 SSTORE JUMP JUMPDEST PUSH1 0x0 PUSH1 0x20 DUP3 DUP5 SUB SLT ISZERO PUSH2 0x4F2 JUMPI PUSH1 0x0 DUP1 REVERT JUMPDEST POP CALLDATALOAD SWAP2 SWAP1 POP JUMP JUMPDEST DUP1 CALLDATALOAD PUSH1 0x1 PUSH1 0x1 PUSH1 0xA0 SHL SUB DUP2 AND DUP2 EQ PUSH2 0x510 JUMPI PUSH1 0x0 DUP1 REVERT JUMPDEST SWAP2 SWAP1 POP JUMP JUMPDEST PUSH1 0x0 DUP1 PUSH1 0x40 DUP4 DUP6 SUB SLT ISZERO PUSH2 0x528 JUMPI PUSH1 0x0 DUP1 REVERT JUMPDEST PUSH2 0x531 DUP4 PUSH2 0x4F9 JUMP JUMPDEST SWAP5 PUSH1 0x20 SWAP4 SWAP1 SWAP4 ADD CALLDATALOAD SWAP4 POP POP POP JUMP JUMPDEST PUSH1 0x0 PUSH1 0x20 DUP3 DUP5 SUB SLT ISZERO PUSH2 0x551 JUMPI PUSH1 0x0 DUP1 REVERT JUMPDEST PUSH2 0x55A DUP3 PUSH2 0x4F9 JUMP JUMPDEST SWAP4 SWAP3 POP POP POP JUMP JUMPDEST DUP1 ISZERO ISZERO DUP2 EQ PUSH2 0x56F JUMPI PUSH1 0x0 DUP1 REVERT JUMPDEST POP JUMP JUMPDEST PUSH1 0x0 PUSH1 0x20 DUP3 DUP5 SUB SLT ISZERO PUSH2 0x584 JUMPI PUSH1 0x0 DUP1 REVERT JUMPDEST DUP2 CALLDATALOAD PUSH2 0x55A DUP2 PUSH2 0x561 JUMP JUMPDEST PUSH1 0x0 DUP1 PUSH1 0x40 DUP4 DUP6 SUB SLT ISZERO PUSH2 0x5A2 JUMPI PUSH1 0x0 DUP1 REVERT JUMPDEST POP POP DUP1 CALLDATALOAD SWAP3 PUSH1 0x20 SWAP1 SWAP2 ADD CALLDATALOAD SWAP2 POP JUMP JUMPDEST PUSH1 0x0 PUSH1 0x20 DUP3 DUP5 SUB SLT ISZERO PUSH2 0x5C3 JUMPI PUSH1 0x0 DUP1 REVERT JUMPDEST DUP2 MLOAD PUSH2 0x55A DUP2 PUSH2 0x561 JUMP JUMPDEST DUP2 DUP2 SUB DUP2 DUP2 GT ISZERO PUSH2 0x5EF JUMPI PUSH4 0x4E487B71 PUSH1 0xE0 SHL PUSH1 0x0 MSTORE PUSH1 0x11 PUSH1 0x4 MSTORE PUSH1 0x24 PUSH1 0x0 REVERT JUMPDEST SWAP3 SWAP2 POP POP JUMP JUMPDEST PUSH1 0x20 DUP1 DUP3 MSTORE PUSH1 0x15 SWAP1 DUP3 ADD MSTORE PUSH21 0x596F7520617265206E6F7420616E2061646D696E21 PUSH1 0x58 SHL PUSH1 0x40 DUP3 ADD MSTORE PUSH1 0x60 ADD SWAP1 JUMP INVALID LOG2 PUSH5 0x6970667358 0x22 SLT KECCAK256 DUP4 0xDF DUP14 SWAP12 DUP15 JUMPDEST 0x4B 0x27 0xF7 0xB7 0xEA 0xF8 0x21 0x1F 0xC6 PUSH3 0x431172 0xEC 0xF8 PUSH5 0xC2240A4AC6 0xCE JUMPI NUMBER 0x4E 0x2A PUSH5 0x736F6C6343 STOP ADDMOD SGT STOP CALLER ",
  "sha1": "d60f2dad4b06be9238204b4082282ee33be3c7d1",
  "source": "pragma solidity 0.8.19;\n\nimport \"@openzeppelin/contracts/token/ERC20/ERC20.sol\";\nimport \"./TFSCoin.sol\";\n\ncontract TFSRewards {\n\n    mapping(address => bool) public isAdmin;\n    TFSCoin coinContract;\n\n    constructor(address _coinContract) {\n        coinContract = TFSCoin(_coinContract);\n        isAdmin[msg.sender] = true;\n        rewardIDToRewardCount[0] = 100;\n        rewardIDToRewardPrice[0] = 15;\n    }\n\n    bool rewardsPaused;\n\n    mapping(uint256 => uint256) public rewardIDToRewardCount;\n    mapping(uint256 => uint256) public rewardIDToRewardPrice;\n\n    event rewardClaimed(address claimee);\n    event rewardsHalted(address who);\n\n    modifier onlyAdmin {\n        require(isAdmin[msg.sender], \"You are not an admin!\");\n        _;\n    }\n\n    function claimReward(address employeeAddress, uint256 rewardID) public {\n        require(!rewardsPaused, \"Rewards are currently paused\");\n        require(rewardIDToRewardCount[rewardID] > 0);\n        require(coinContract.burn(employeeAddress, rewardIDToRewardPrice[rewardID]), \"Not enough TFS Coin for reward\");\n        rewardIDToRewardCount[rewardID] = rewardIDToRewardCount[rewardID] - 1;\n        emit rewardClaimed(msg.sender);\n    }\n    \n    function addReward(uint256 rewardID, uint256 rewardCount) onlyAdmin public {\n        rewardIDToRewardCount[rewardID] = rewardCount;\n    }\n\n    function removeReward(uint256 rewardID) onlyAdmin public {\n        rewardIDToRewardCount[rewardID] = 0;\n    }\n\n    function pauseRewards(bool _rewardsPaused) onlyAdmin public {\n        rewardsPaused = _rewardsPaused;\n        emit rewardsHalted(msg.sender);\n    }\n\n    function addAdmin(address newAdmin) onlyAdmin public {\n        isAdmin[newAdmin] = true;\n    }\n\n    function removeAdmin(address newAdmin) onlyAdmin public {\n        isAdmin[newAdmin] = false;\n    }\n\n}",
  "sourcePath": "contracts/TFSRewards.sol",
  "type": "contract"
}