{"abi":[{"inputs":[{"internalType":"address","name":"_coinContract","type":"address"}],"stateMutability":"nonpayable","type":"constructor","name":"constructor"},{"anonymous":false,"inputs":[{"indexed":false,"internalType":"address","name":"employeAddress","type":"address"},{"indexed":false,"internalType":"uint256","name":"awardID","type":"uint256"}],"name":"awardedCoins","type":"event"},{"anonymous":false,"inputs":[{"indexed":false,"internalType":"address","name":"employeeAddress","type":"address"},{"indexed":false,"internalType":"uint256","name":"rewardID","type":"uint256"}],"name":"rewardClaimed","type":"event"},{"anonymous":false,"inputs":[{"indexed":false,"internalType":"address","name":"adminAddress","type":"address"}],"name":"rewardsHalted","type":"event"},{"inputs":[{"internalType":"address","name":"newAdmin","type":"address"}],"name":"addAdmin","outputs":[],"stateMutability":"nonpayable","type":"function"},{"inputs":[{"internalType":"uint256","name":"awardID","type":"uint256"}],"name":"addAward","outputs":[],"stateMutability":"nonpayable","type":"function"},{"inputs":[{"internalType":"uint256","name":"rewardID","type":"uint256"}],"name":"addReward","outputs":[],"stateMutability":"nonpayable","type":"function"},{"inputs":[{"internalType":"uint256","name":"","type":"uint256"}],"name":"availableAwards","outputs":[{"internalType":"bool","name":"","type":"bool"}],"stateMutability":"view","type":"function"},{"inputs":[{"internalType":"uint256","name":"","type":"uint256"}],"name":"availableRewards","outputs":[{"internalType":"bool","name":"","type":"bool"}],"stateMutability":"view","type":"function"},{"inputs":[{"internalType":"address","name":"employeeAddress","type":"address"},{"internalType":"uint256","name":"coins","type":"uint256"},{"internalType":"uint256","name":"awardID","type":"uint256"}],"name":"awardCoins","outputs":[],"stateMutability":"nonpayable","type":"function"},{"inputs":[{"internalType":"address","name":"employeeAddress","type":"address"},{"internalType":"uint256","name":"rewardID","type":"uint256"},{"internalType":"uint256","name":"rewardPrice","type":"uint256"}],"name":"claimReward","outputs":[],"stateMutability":"nonpayable","type":"function"},{"inputs":[{"internalType":"address","name":"","type":"address"}],"name":"isAdmin","outputs":[{"internalType":"bool","name":"","type":"bool"}],"stateMutability":"view","type":"function"},{"inputs":[{"internalType":"bool","name":"_rewardsPaused","type":"bool"}],"name":"pauseRewards","outputs":[],"stateMutability":"nonpayable","type":"function"},{"inputs":[{"internalType":"address","name":"newAdmin","type":"address"}],"name":"removeAdmin","outputs":[],"stateMutability":"nonpayable","type":"function"},{"inputs":[{"internalType":"uint256","name":"awardID","type":"uint256"}],"name":"removeAward","outputs":[],"stateMutability":"nonpayable","type":"function"},{"inputs":[{"internalType":"uint256","name":"rewardID","type":"uint256"}],"name":"removeReward","outputs":[],"stateMutability":"nonpayable","type":"function"}],"bytecode":"608060405234801561001057600080fd5b50604051610ee7380380610ee783398101604081905261002f91610184565b600180546001600160a01b039092166001600160a01b0319909216919091178155336000908152602081815260408220805460ff199081168517909155835460ff60a01b1916600160a01b1784557fac33ff75c19e70fe83507db0d683fd3465c996598dc972688b7ace676c89077b80548216851790557fe90b7bceb6e7df5418fb78d8ee546e97c83a08bbccc01a0644d599ccd2a7c2e080548216851790557f679795a0195a1b76cdebb7c51d74e058aee92919b8c3389af86ef24535e8a28c805482168517905560039091527f3617319a054d772f909f7c479a2cebe5066e836a939412e32403c99029b92eff80548216841790557fa15bc60c955c405d20d9149c709e2460f1c2d9a497496a7f46004d1772c3054c805482168417905560029091527fc3a24b0501bd2c13a7e57f2db4369ec4c223447539fc0724a9d55ac4a06ebd4d805490911690911790556101b4565b60006020828403121561019657600080fd5b81516001600160a01b03811681146101ad57600080fd5b9392505050565b610d24806101c36000396000f3fe608060405234801561001057600080fd5b50600436106100b45760003560e01c80637048027511610071578063704802751461017157806374de4ec41461018457806379af5141146101975780639d06fc9a146101aa578063b479d10b146101bd578063c553173f146101d057600080fd5b806302ac7b8e146100b957806310fa05cc146100ce5780631785f53c1461010557806324d7806c1461011857806331b7558b1461013b57806361c02efb1461014e575b600080fd5b6100cc6100c7366004610b03565b6101e3565b005b6100f16100dc366004610b36565b60026020526000908152604090205460ff1681565b604051901515815260200160405180910390f35b6100cc610113366004610b4f565b61038b565b6100f1610126366004610b4f565b60006020819052908152604090205460ff1681565b6100cc610149366004610b82565b610409565b6100f161015c366004610b36565b60036020526000908152604090205460ff1681565b6100cc61017f366004610b4f565b6104b3565b6100cc610192366004610b36565b610534565b6100cc6101a5366004610b36565b6105ac565b6100cc6101b8366004610b03565b610621565b6100cc6101cb366004610b36565b610855565b6100cc6101de366004610b36565b6108cd565b3360008181526020819052604090205460ff1690610202906014610942565b6040516020016102129190610bc3565b604051602081830303815290604052906102485760405162461bcd60e51b815260040161023f9190610c1b565b60405180910390fd5b5060008181526002602052604090205460ff166102c35760405162461bcd60e51b815260206004820152603360248201527f544653526577617264733a2054686973206973206e6f7420612076616c696420604482015272185dd85c9908185d081d1a19481b5bdb595b9d606a1b606482015260840161023f565b6001546040516340c10f1960e01b81526001600160a01b03858116600483015260248201859052909116906340c10f19906044016020604051808303816000875af1158015610316573d6000803e3d6000fd5b505050506040513d601f19601f8201168201806040525081019061033a9190610c4e565b61034357600080fd5b604080516001600160a01b0385168152602081018390527fd60d243d470486585ccd84415c03a17e618114139a74153f8dfa63af0053f00591015b60405180910390a1505050565b3360008181526020819052604090205460ff16906103aa906014610942565b6040516020016103ba9190610bc3565b604051602081830303815290604052906103e75760405162461bcd60e51b815260040161023f9190610c1b565b506001600160a01b03166000908152602081905260409020805460ff19169055565b3360008181526020819052604090205460ff1690610428906014610942565b6040516020016104389190610bc3565b604051602081830303815290604052906104655760405162461bcd60e51b815260040161023f9190610c1b565b506001805460ff60a01b1916600160a01b831515021790556040513381527ff42b79f7755e1fe195ffe4b6dedd32acb3f379d48c664a958dd6f30ff8bacbf79060200160405180910390a150565b3360008181526020819052604090205460ff16906104d2906014610942565b6040516020016104e29190610bc3565b6040516020818303038152906040529061050f5760405162461bcd60e51b815260040161023f9190610c1b565b506001600160a01b03166000908152602081905260409020805460ff19166001179055565b3360008181526020819052604090205460ff1690610553906014610942565b6040516020016105639190610bc3565b604051602081830303815290604052906105905760405162461bcd60e51b815260040161023f9190610c1b565b506000908152600360205260409020805460ff19166001179055565b3360008181526020819052604090205460ff16906105cb906014610942565b6040516020016105db9190610bc3565b604051602081830303815290604052906106085760405162461bcd60e51b815260040161023f9190610c1b565b506000908152600260205260409020805460ff19169055565b3360008181526020819052604090205460ff1690610640906014610942565b6040516020016106509190610bc3565b6040516020818303038152906040529061067d5760405162461bcd60e51b815260040161023f9190610c1b565b50600154600160a01b900460ff16156106d85760405162461bcd60e51b815260206004820152601c60248201527f52657761726473206172652063757272656e746c792070617573656400000000604482015260640161023f565b60008281526003602052604090205460ff166107535760405162461bcd60e51b815260206004820152603460248201527f544653526577617264733a2054686973206973206e6f7420612076616c6964206044820152731c995dd85c9908185d081d1a19481b5bdb595b9d60621b606482015260840161023f565b600154604051632770a7eb60e21b81526001600160a01b0385811660048301526024820184905290911690639dc29fac906044016020604051808303816000875af11580156107a6573d6000803e3d6000fd5b505050506040513d601f19601f820116820180604052508101906107ca9190610c4e565b6108165760405162461bcd60e51b815260206004820152601e60248201527f4e6f7420656e6f7567682054465320436f696e20666f72207265776172640000604482015260640161023f565b604080516001600160a01b0385168152602081018490527f83b78188b13346b2ffb484da70d42ee27de7fbf9f2bd8045269e10ed643ccd76910161037e565b3360008181526020819052604090205460ff1690610874906014610942565b6040516020016108849190610bc3565b604051602081830303815290604052906108b15760405162461bcd60e51b815260040161023f9190610c1b565b506000908152600260205260409020805460ff19166001179055565b3360008181526020819052604090205460ff16906108ec906014610942565b6040516020016108fc9190610bc3565b604051602081830303815290604052906109295760405162461bcd60e51b815260040161023f9190610c1b565b506000908152600360205260409020805460ff19169055565b60606000610951836002610c81565b61095c906002610c98565b67ffffffffffffffff81111561097457610974610cab565b6040519080825280601f01601f19166020018201604052801561099e576020820181803683370190505b509050600360fc1b816000815181106109b9576109b9610cc1565b60200101906001600160f81b031916908160001a905350600f60fb1b816001815181106109e8576109e8610cc1565b60200101906001600160f81b031916908160001a9053506000610a0c846002610c81565b610a17906001610c98565b90505b6001811115610a8f576f181899199a1a9b1b9c1cb0b131b232b360811b85600f1660108110610a4b57610a4b610cc1565b1a60f81b828281518110610a6157610a61610cc1565b60200101906001600160f81b031916908160001a90535060049490941c93610a8881610cd7565b9050610a1a565b508315610ade5760405162461bcd60e51b815260206004820181905260248201527f537472696e67733a20686578206c656e67746820696e73756666696369656e74604482015260640161023f565b90505b92915050565b80356001600160a01b0381168114610afe57600080fd5b919050565b600080600060608486031215610b1857600080fd5b610b2184610ae7565b95602085013595506040909401359392505050565b600060208284031215610b4857600080fd5b5035919050565b600060208284031215610b6157600080fd5b610b6a82610ae7565b9392505050565b8015158114610b7f57600080fd5b50565b600060208284031215610b9457600080fd5b8135610ade81610b71565b60005b83811015610bba578181015183820152602001610ba2565b50506000910152565b7f544653526577617264733a2054686973206973206e6f7420616e2061646d696e81526901030b2323932b9b99d160b51b602082015260008251610c0e81602a850160208701610b9f565b91909101602a0192915050565b6020815260008251806020840152610c3a816040850160208701610b9f565b601f01601f19169190910160400192915050565b600060208284031215610c6057600080fd5b8151610ade81610b71565b634e487b7160e01b600052601160045260246000fd5b8082028115828204841417610ae157610ae1610c6b565b80820180821115610ae157610ae1610c6b565b634e487b7160e01b600052604160045260246000fd5b634e487b7160e01b600052603260045260246000fd5b600081610ce657610ce6610c6b565b50600019019056fea264697066735822122058cd369b4d379c247745f9bd4b9fd369352c96b38437355aaa999e08029e688564736f6c63430008130033","bytecodeSha1":"4c95168dc0b1c1cfeda04f6da983913b93eaf689","compiler":{"evm_version":"istanbul","optimizer":{"enabled":true,"runs":200},"version":"0.8.19+commit.7dd6d404"},"contractName":"TFSRewards","language":"Solidity","natspec":{"kind":"dev","methods":{},"version":1},"opcodes":"PUSH1 0x80 PUSH1 0x40 MSTORE CALLVALUE DUP1 ISZERO PUSH2 0x10 JUMPI PUSH1 0x0 DUP1 REVERT JUMPDEST POP PUSH1 0x4 CALLDATASIZE LT PUSH2 0xB4 JUMPI PUSH1 0x0 CALLDATALOAD PUSH1 0xE0 SHR DUP1 PUSH4 0x70480275 GT PUSH2 0x71 JUMPI DUP1 PUSH4 0x70480275 EQ PUSH2 0x171 JUMPI DUP1 PUSH4 0x74DE4EC4 EQ PUSH2 0x184 JUMPI DUP1 PUSH4 0x79AF5141 EQ PUSH2 0x197 JUMPI DUP1 PUSH4 0x9D06FC9A EQ PUSH2 0x1AA JUMPI DUP1 PUSH4 0xB479D10B EQ PUSH2 0x1BD JUMPI DUP1 PUSH4 0xC553173F EQ PUSH2 0x1D0 JUMPI PUSH1 0x0 DUP1 REVERT JUMPDEST DUP1 PUSH4 0x2AC7B8E EQ PUSH2 0xB9 JUMPI DUP1 PUSH4 0x10FA05CC EQ PUSH2 0xCE JUMPI DUP1 PUSH4 0x1785F53C EQ PUSH2 0x105 JUMPI DUP1 PUSH4 0x24D7806C EQ PUSH2 0x118 JUMPI DUP1 PUSH4 0x31B7558B EQ PUSH2 0x13B JUMPI DUP1 PUSH4 0x61C02EFB EQ PUSH2 0x14E JUMPI JUMPDEST PUSH1 0x0 DUP1 REVERT JUMPDEST PUSH2 0xCC PUSH2 0xC7 CALLDATASIZE PUSH1 0x4 PUSH2 0xB03 JUMP JUMPDEST PUSH2 0x1E3 JUMP JUMPDEST STOP JUMPDEST PUSH2 0xF1 PUSH2 0xDC CALLDATASIZE PUSH1 0x4 PUSH2 0xB36 JUMP JUMPDEST PUSH1 0x2 PUSH1 0x20 MSTORE PUSH1 0x0 SWAP1 DUP2 MSTORE PUSH1 0x40 SWAP1 KECCAK256 SLOAD PUSH1 0xFF AND DUP2 JUMP JUMPDEST PUSH1 0x40 MLOAD SWAP1 ISZERO ISZERO DUP2 MSTORE PUSH1 0x20 ADD PUSH1 0x40 MLOAD DUP1 SWAP2 SUB SWAP1 RETURN JUMPDEST PUSH2 0xCC PUSH2 0x113 CALLDATASIZE PUSH1 0x4 PUSH2 0xB4F JUMP JUMPDEST PUSH2 0x38B JUMP JUMPDEST PUSH2 0xF1 PUSH2 0x126 CALLDATASIZE PUSH1 0x4 PUSH2 0xB4F JUMP JUMPDEST PUSH1 0x0 PUSH1 0x20 DUP2 SWAP1 MSTORE SWAP1 DUP2 MSTORE PUSH1 0x40 SWAP1 KECCAK256 SLOAD PUSH1 0xFF AND DUP2 JUMP JUMPDEST PUSH2 0xCC PUSH2 0x149 CALLDATASIZE PUSH1 0x4 PUSH2 0xB82 JUMP JUMPDEST PUSH2 0x409 JUMP JUMPDEST PUSH2 0xF1 PUSH2 0x15C CALLDATASIZE PUSH1 0x4 PUSH2 0xB36 JUMP JUMPDEST PUSH1 0x3 PUSH1 0x20 MSTORE PUSH1 0x0 SWAP1 DUP2 MSTORE PUSH1 0x40 SWAP1 KECCAK256 SLOAD PUSH1 0xFF AND DUP2 JUMP JUMPDEST PUSH2 0xCC PUSH2 0x17F CALLDATASIZE PUSH1 0x4 PUSH2 0xB4F JUMP JUMPDEST PUSH2 0x4B3 JUMP JUMPDEST PUSH2 0xCC PUSH2 0x192 CALLDATASIZE PUSH1 0x4 PUSH2 0xB36 JUMP JUMPDEST PUSH2 0x534 JUMP JUMPDEST PUSH2 0xCC PUSH2 0x1A5 CALLDATASIZE PUSH1 0x4 PUSH2 0xB36 JUMP JUMPDEST PUSH2 0x5AC JUMP JUMPDEST PUSH2 0xCC PUSH2 0x1B8 CALLDATASIZE PUSH1 0x4 PUSH2 0xB03 JUMP JUMPDEST PUSH2 0x621 JUMP JUMPDEST PUSH2 0xCC PUSH2 0x1CB CALLDATASIZE PUSH1 0x4 PUSH2 0xB36 JUMP JUMPDEST PUSH2 0x855 JUMP JUMPDEST PUSH2 0xCC PUSH2 0x1DE CALLDATASIZE PUSH1 0x4 PUSH2 0xB36 JUMP JUMPDEST PUSH2 0x8CD JUMP JUMPDEST CALLER PUSH1 0x0 DUP2 DUP2 MSTORE PUSH1 0x20 DUP2 SWAP1 MSTORE PUSH1 0x40 SWAP1 KECCAK256 SLOAD PUSH1 0xFF AND SWAP1 PUSH2 0x202 SWAP1 PUSH1 0x14 PUSH2 0x942 JUMP JUMPDEST PUSH1 0x40 MLOAD PUSH1 0x20 ADD PUSH2 0x212 SWAP2 SWAP1 PUSH2 0xBC3 JUMP JUMPDEST PUSH1 0x40 MLOAD PUSH1 0x20 DUP2 DUP4 SUB SUB DUP2 MSTORE SWAP1 PUSH1 0x40 MSTORE SWAP1 PUSH2 0x248 JUMPI PUSH1 0x40 MLOAD PUSH3 0x461BCD PUSH1 0xE5 SHL DUP2 MSTORE PUSH1 0x4 ADD PUSH2 0x23F SWAP2 SWAP1 PUSH2 0xC1B JUMP JUMPDEST PUSH1 0x40 MLOAD DUP1 SWAP2 SUB SWAP1 REVERT JUMPDEST POP PUSH1 0x0 DUP2 DUP2 MSTORE PUSH1 0x2 PUSH1 0x20 MSTORE PUSH1 0x40 SWAP1 KECCAK256 SLOAD PUSH1 0xFF AND PUSH2 0x2C3 JUMPI PUSH1 0x40 MLOAD PUSH3 0x461BCD PUSH1 0xE5 SHL DUP2 MSTORE PUSH1 0x20 PUSH1 0x4 DUP3 ADD MSTORE PUSH1 0x33 PUSH1 0x24 DUP3 ADD MSTORE PUSH32 0x544653526577617264733A2054686973206973206E6F7420612076616C696420 PUSH1 0x44 DUP3 ADD MSTORE PUSH19 0x185DD85C9908185D081D1A19481B5BDB595B9D PUSH1 0x6A SHL PUSH1 0x64 DUP3 ADD MSTORE PUSH1 0x84 ADD PUSH2 0x23F JUMP JUMPDEST PUSH1 0x1 SLOAD PUSH1 0x40 MLOAD PUSH4 0x40C10F19 PUSH1 0xE0 SHL DUP2 MSTORE PUSH1 0x1 PUSH1 0x1 PUSH1 0xA0 SHL SUB DUP6 DUP2 AND PUSH1 0x4 DUP4 ADD MSTORE PUSH1 0x24 DUP3 ADD DUP6 SWAP1 MSTORE SWAP1 SWAP2 AND SWAP1 PUSH4 0x40C10F19 SWAP1 PUSH1 0x44 ADD PUSH1 0x20 PUSH1 0x40 MLOAD DUP1 DUP4 SUB DUP2 PUSH1 0x0 DUP8 GAS CALL ISZERO DUP1 ISZERO PUSH2 0x316 JUMPI RETURNDATASIZE PUSH1 0x0 DUP1 RETURNDATACOPY RETURNDATASIZE PUSH1 0x0 REVERT JUMPDEST POP POP POP POP PUSH1 0x40 MLOAD RETURNDATASIZE PUSH1 0x1F NOT PUSH1 0x1F DUP3 ADD AND DUP3 ADD DUP1 PUSH1 0x40 MSTORE POP DUP2 ADD SWAP1 PUSH2 0x33A SWAP2 SWAP1 PUSH2 0xC4E JUMP JUMPDEST PUSH2 0x343 JUMPI PUSH1 0x0 DUP1 REVERT JUMPDEST PUSH1 0x40 DUP1 MLOAD PUSH1 0x1 PUSH1 0x1 PUSH1 0xA0 SHL SUB DUP6 AND DUP2 MSTORE PUSH1 0x20 DUP2 ADD DUP4 SWAP1 MSTORE PUSH32 0xD60D243D470486585CCD84415C03A17E618114139A74153F8DFA63AF0053F005 SWAP2 ADD JUMPDEST PUSH1 0x40 MLOAD DUP1 SWAP2 SUB SWAP1 LOG1 POP POP POP JUMP JUMPDEST CALLER PUSH1 0x0 DUP2 DUP2 MSTORE PUSH1 0x20 DUP2 SWAP1 MSTORE PUSH1 0x40 SWAP1 KECCAK256 SLOAD PUSH1 0xFF AND SWAP1 PUSH2 0x3AA SWAP1 PUSH1 0x14 PUSH2 0x942 JUMP JUMPDEST PUSH1 0x40 MLOAD PUSH1 0x20 ADD PUSH2 0x3BA SWAP2 SWAP1 PUSH2 0xBC3 JUMP JUMPDEST PUSH1 0x40 MLOAD PUSH1 0x20 DUP2 DUP4 SUB SUB DUP2 MSTORE SWAP1 PUSH1 0x40 MSTORE SWAP1 PUSH2 0x3E7 JUMPI PUSH1 0x40 MLOAD PUSH3 0x461BCD PUSH1 0xE5 SHL DUP2 MSTORE PUSH1 0x4 ADD PUSH2 0x23F SWAP2 SWAP1 PUSH2 0xC1B JUMP JUMPDEST POP PUSH1 0x1 PUSH1 0x1 PUSH1 0xA0 SHL SUB AND PUSH1 0x0 SWAP1 DUP2 MSTORE PUSH1 0x20 DUP2 SWAP1 MSTORE PUSH1 0x40 SWAP1 KECCAK256 DUP1 SLOAD PUSH1 0xFF NOT AND SWAP1 SSTORE JUMP JUMPDEST CALLER PUSH1 0x0 DUP2 DUP2 MSTORE PUSH1 0x20 DUP2 SWAP1 MSTORE PUSH1 0x40 SWAP1 KECCAK256 SLOAD PUSH1 0xFF AND SWAP1 PUSH2 0x428 SWAP1 PUSH1 0x14 PUSH2 0x942 JUMP JUMPDEST PUSH1 0x40 MLOAD PUSH1 0x20 ADD PUSH2 0x438 SWAP2 SWAP1 PUSH2 0xBC3 JUMP JUMPDEST PUSH1 0x40 MLOAD PUSH1 0x20 DUP2 DUP4 SUB SUB DUP2 MSTORE SWAP1 PUSH1 0x40 MSTORE SWAP1 PUSH2 0x465 JUMPI PUSH1 0x40 MLOAD PUSH3 0x461BCD PUSH1 0xE5 SHL DUP2 MSTORE PUSH1 0x4 ADD PUSH2 0x23F SWAP2 SWAP1 PUSH2 0xC1B JUMP JUMPDEST POP PUSH1 0x1 DUP1 SLOAD PUSH1 0xFF PUSH1 0xA0 SHL NOT AND PUSH1 0x1 PUSH1 0xA0 SHL DUP4 ISZERO ISZERO MUL OR SWAP1 SSTORE PUSH1 0x40 MLOAD CALLER DUP2 MSTORE PUSH32 0xF42B79F7755E1FE195FFE4B6DEDD32ACB3F379D48C664A958DD6F30FF8BACBF7 SWAP1 PUSH1 0x20 ADD PUSH1 0x40 MLOAD DUP1 SWAP2 SUB SWAP1 LOG1 POP JUMP JUMPDEST CALLER PUSH1 0x0 DUP2 DUP2 MSTORE PUSH1 0x20 DUP2 SWAP1 MSTORE PUSH1 0x40 SWAP1 KECCAK256 SLOAD PUSH1 0xFF AND SWAP1 PUSH2 0x4D2 SWAP1 PUSH1 0x14 PUSH2 0x942 JUMP JUMPDEST PUSH1 0x40 MLOAD PUSH1 0x20 ADD PUSH2 0x4E2 SWAP2 SWAP1 PUSH2 0xBC3 JUMP JUMPDEST PUSH1 0x40 MLOAD PUSH1 0x20 DUP2 DUP4 SUB SUB DUP2 MSTORE SWAP1 PUSH1 0x40 MSTORE SWAP1 PUSH2 0x50F JUMPI PUSH1 0x40 MLOAD PUSH3 0x461BCD PUSH1 0xE5 SHL DUP2 MSTORE PUSH1 0x4 ADD PUSH2 0x23F SWAP2 SWAP1 PUSH2 0xC1B JUMP JUMPDEST POP PUSH1 0x1 PUSH1 0x1 PUSH1 0xA0 SHL SUB AND PUSH1 0x0 SWAP1 DUP2 MSTORE PUSH1 0x20 DUP2 SWAP1 MSTORE PUSH1 0x40 SWAP1 KECCAK256 DUP1 SLOAD PUSH1 0xFF NOT AND PUSH1 0x1 OR SWAP1 SSTORE JUMP JUMPDEST CALLER PUSH1 0x0 DUP2 DUP2 MSTORE PUSH1 0x20 DUP2 SWAP1 MSTORE PUSH1 0x40 SWAP1 KECCAK256 SLOAD PUSH1 0xFF AND SWAP1 PUSH2 0x553 SWAP1 PUSH1 0x14 PUSH2 0x942 JUMP JUMPDEST PUSH1 0x40 MLOAD PUSH1 0x20 ADD PUSH2 0x563 SWAP2 SWAP1 PUSH2 0xBC3 JUMP JUMPDEST PUSH1 0x40 MLOAD PUSH1 0x20 DUP2 DUP4 SUB SUB DUP2 MSTORE SWAP1 PUSH1 0x40 MSTORE SWAP1 PUSH2 0x590 JUMPI PUSH1 0x40 MLOAD PUSH3 0x461BCD PUSH1 0xE5 SHL DUP2 MSTORE PUSH1 0x4 ADD PUSH2 0x23F SWAP2 SWAP1 PUSH2 0xC1B JUMP JUMPDEST POP PUSH1 0x0 SWAP1 DUP2 MSTORE PUSH1 0x3 PUSH1 0x20 MSTORE PUSH1 0x40 SWAP1 KECCAK256 DUP1 SLOAD PUSH1 0xFF NOT AND PUSH1 0x1 OR SWAP1 SSTORE JUMP JUMPDEST CALLER PUSH1 0x0 DUP2 DUP2 MSTORE PUSH1 0x20 DUP2 SWAP1 MSTORE PUSH1 0x40 SWAP1 KECCAK256 SLOAD PUSH1 0xFF AND SWAP1 PUSH2 0x5CB SWAP1 PUSH1 0x14 PUSH2 0x942 JUMP JUMPDEST PUSH1 0x40 MLOAD PUSH1 0x20 ADD PUSH2 0x5DB SWAP2 SWAP1 PUSH2 0xBC3 JUMP JUMPDEST PUSH1 0x40 MLOAD PUSH1 0x20 DUP2 DUP4 SUB SUB DUP2 MSTORE SWAP1 PUSH1 0x40 MSTORE SWAP1 PUSH2 0x608 JUMPI PUSH1 0x40 MLOAD PUSH3 0x461BCD PUSH1 0xE5 SHL DUP2 MSTORE PUSH1 0x4 ADD PUSH2 0x23F SWAP2 SWAP1 PUSH2 0xC1B JUMP JUMPDEST POP PUSH1 0x0 SWAP1 DUP2 MSTORE PUSH1 0x2 PUSH1 0x20 MSTORE PUSH1 0x40 SWAP1 KECCAK256 DUP1 SLOAD PUSH1 0xFF NOT AND SWAP1 SSTORE JUMP JUMPDEST CALLER PUSH1 0x0 DUP2 DUP2 MSTORE PUSH1 0x20 DUP2 SWAP1 MSTORE PUSH1 0x40 SWAP1 KECCAK256 SLOAD PUSH1 0xFF AND SWAP1 PUSH2 0x640 SWAP1 PUSH1 0x14 PUSH2 0x942 JUMP JUMPDEST PUSH1 0x40 MLOAD PUSH1 0x20 ADD PUSH2 0x650 SWAP2 SWAP1 PUSH2 0xBC3 JUMP JUMPDEST PUSH1 0x40 MLOAD PUSH1 0x20 DUP2 DUP4 SUB SUB DUP2 MSTORE SWAP1 PUSH1 0x40 MSTORE SWAP1 PUSH2 0x67D JUMPI PUSH1 0x40 MLOAD PUSH3 0x461BCD PUSH1 0xE5 SHL DUP2 MSTORE PUSH1 0x4 ADD PUSH2 0x23F SWAP2 SWAP1 PUSH2 0xC1B JUMP JUMPDEST POP PUSH1 0x1 SLOAD PUSH1 0x1 PUSH1 0xA0 SHL SWAP1 DIV PUSH1 0xFF AND ISZERO PUSH2 0x6D8 JUMPI PUSH1 0x40 MLOAD PUSH3 0x461BCD PUSH1 0xE5 SHL DUP2 MSTORE PUSH1 0x20 PUSH1 0x4 DUP3 ADD MSTORE PUSH1 0x1C PUSH1 0x24 DUP3 ADD MSTORE PUSH32 0x52657761726473206172652063757272656E746C792070617573656400000000 PUSH1 0x44 DUP3 ADD MSTORE PUSH1 0x64 ADD PUSH2 0x23F JUMP JUMPDEST PUSH1 0x0 DUP3 DUP2 MSTORE PUSH1 0x3 PUSH1 0x20 MSTORE PUSH1 0x40 SWAP1 KECCAK256 SLOAD PUSH1 0xFF AND PUSH2 0x753 JUMPI PUSH1 0x40 MLOAD PUSH3 0x461BCD PUSH1 0xE5 SHL DUP2 MSTORE PUSH1 0x20 PUSH1 0x4 DUP3 ADD MSTORE PUSH1 0x34 PUSH1 0x24 DUP3 ADD MSTORE PUSH32 0x544653526577617264733A2054686973206973206E6F7420612076616C696420 PUSH1 0x44 DUP3 ADD MSTORE PUSH20 0x1C995DD85C9908185D081D1A19481B5BDB595B9D PUSH1 0x62 SHL PUSH1 0x64 DUP3 ADD MSTORE PUSH1 0x84 ADD PUSH2 0x23F JUMP JUMPDEST PUSH1 0x1 SLOAD PUSH1 0x40 MLOAD PUSH4 0x2770A7EB PUSH1 0xE2 SHL DUP2 MSTORE PUSH1 0x1 PUSH1 0x1 PUSH1 0xA0 SHL SUB DUP6 DUP2 AND PUSH1 0x4 DUP4 ADD MSTORE PUSH1 0x24 DUP3 ADD DUP5 SWAP1 MSTORE SWAP1 SWAP2 AND SWAP1 PUSH4 0x9DC29FAC SWAP1 PUSH1 0x44 ADD PUSH1 0x20 PUSH1 0x40 MLOAD DUP1 DUP4 SUB DUP2 PUSH1 0x0 DUP8 GAS CALL ISZERO DUP1 ISZERO PUSH2 0x7A6 JUMPI RETURNDATASIZE PUSH1 0x0 DUP1 RETURNDATACOPY RETURNDATASIZE PUSH1 0x0 REVERT JUMPDEST POP POP POP POP PUSH1 0x40 MLOAD RETURNDATASIZE PUSH1 0x1F NOT PUSH1 0x1F DUP3 ADD AND DUP3 ADD DUP1 PUSH1 0x40 MSTORE POP DUP2 ADD SWAP1 PUSH2 0x7CA SWAP2 SWAP1 PUSH2 0xC4E JUMP JUMPDEST PUSH2 0x816 JUMPI PUSH1 0x40 MLOAD PUSH3 0x461BCD PUSH1 0xE5 SHL DUP2 MSTORE PUSH1 0x20 PUSH1 0x4 DUP3 ADD MSTORE PUSH1 0x1E PUSH1 0x24 DUP3 ADD MSTORE PUSH32 0x4E6F7420656E6F7567682054465320436F696E20666F72207265776172640000 PUSH1 0x44 DUP3 ADD MSTORE PUSH1 0x64 ADD PUSH2 0x23F JUMP JUMPDEST PUSH1 0x40 DUP1 MLOAD PUSH1 0x1 PUSH1 0x1 PUSH1 0xA0 SHL SUB DUP6 AND DUP2 MSTORE PUSH1 0x20 DUP2 ADD DUP5 SWAP1 MSTORE PUSH32 0x83B78188B13346B2FFB484DA70D42EE27DE7FBF9F2BD8045269E10ED643CCD76 SWAP2 ADD PUSH2 0x37E JUMP JUMPDEST CALLER PUSH1 0x0 DUP2 DUP2 MSTORE PUSH1 0x20 DUP2 SWAP1 MSTORE PUSH1 0x40 SWAP1 KECCAK256 SLOAD PUSH1 0xFF AND SWAP1 PUSH2 0x874 SWAP1 PUSH1 0x14 PUSH2 0x942 JUMP JUMPDEST PUSH1 0x40 MLOAD PUSH1 0x20 ADD PUSH2 0x884 SWAP2 SWAP1 PUSH2 0xBC3 JUMP JUMPDEST PUSH1 0x40 MLOAD PUSH1 0x20 DUP2 DUP4 SUB SUB DUP2 MSTORE SWAP1 PUSH1 0x40 MSTORE SWAP1 PUSH2 0x8B1 JUMPI PUSH1 0x40 MLOAD PUSH3 0x461BCD PUSH1 0xE5 SHL DUP2 MSTORE PUSH1 0x4 ADD PUSH2 0x23F SWAP2 SWAP1 PUSH2 0xC1B JUMP JUMPDEST POP PUSH1 0x0 SWAP1 DUP2 MSTORE PUSH1 0x2 PUSH1 0x20 MSTORE PUSH1 0x40 SWAP1 KECCAK256 DUP1 SLOAD PUSH1 0xFF NOT AND PUSH1 0x1 OR SWAP1 SSTORE JUMP JUMPDEST CALLER PUSH1 0x0 DUP2 DUP2 MSTORE PUSH1 0x20 DUP2 SWAP1 MSTORE PUSH1 0x40 SWAP1 KECCAK256 SLOAD PUSH1 0xFF AND SWAP1 PUSH2 0x8EC SWAP1 PUSH1 0x14 PUSH2 0x942 JUMP JUMPDEST PUSH1 0x40 MLOAD PUSH1 0x20 ADD PUSH2 0x8FC SWAP2 SWAP1 PUSH2 0xBC3 JUMP JUMPDEST PUSH1 0x40 MLOAD PUSH1 0x20 DUP2 DUP4 SUB SUB DUP2 MSTORE SWAP1 PUSH1 0x40 MSTORE SWAP1 PUSH2 0x929 JUMPI PUSH1 0x40 MLOAD PUSH3 0x461BCD PUSH1 0xE5 SHL DUP2 MSTORE PUSH1 0x4 ADD PUSH2 0x23F SWAP2 SWAP1 PUSH2 0xC1B JUMP JUMPDEST POP PUSH1 0x0 SWAP1 DUP2 MSTORE PUSH1 0x3 PUSH1 0x20 MSTORE PUSH1 0x40 SWAP1 KECCAK256 DUP1 SLOAD PUSH1 0xFF NOT AND SWAP1 SSTORE JUMP JUMPDEST PUSH1 0x60 PUSH1 0x0 PUSH2 0x951 DUP4 PUSH1 0x2 PUSH2 0xC81 JUMP JUMPDEST PUSH2 0x95C SWAP1 PUSH1 0x2 PUSH2 0xC98 JUMP JUMPDEST PUSH8 0xFFFFFFFFFFFFFFFF DUP2 GT ISZERO PUSH2 0x974 JUMPI PUSH2 0x974 PUSH2 0xCAB JUMP JUMPDEST PUSH1 0x40 MLOAD SWAP1 DUP1 DUP3 MSTORE DUP1 PUSH1 0x1F ADD PUSH1 0x1F NOT AND PUSH1 0x20 ADD DUP3 ADD PUSH1 0x40 MSTORE DUP1 ISZERO PUSH2 0x99E JUMPI PUSH1 0x20 DUP3 ADD DUP2 DUP1 CALLDATASIZE DUP4 CALLDATACOPY ADD SWAP1 POP JUMPDEST POP SWAP1 POP PUSH1 0x3 PUSH1 0xFC SHL DUP2 PUSH1 0x0 DUP2 MLOAD DUP2 LT PUSH2 0x9B9 JUMPI PUSH2 0x9B9 PUSH2 0xCC1 JUMP JUMPDEST PUSH1 0x20 ADD ADD SWAP1 PUSH1 0x1 PUSH1 0x1 PUSH1 0xF8 SHL SUB NOT AND SWAP1 DUP2 PUSH1 0x0 BYTE SWAP1 MSTORE8 POP PUSH1 0xF PUSH1 0xFB SHL DUP2 PUSH1 0x1 DUP2 MLOAD DUP2 LT PUSH2 0x9E8 JUMPI PUSH2 0x9E8 PUSH2 0xCC1 JUMP JUMPDEST PUSH1 0x20 ADD ADD SWAP1 PUSH1 0x1 PUSH1 0x1 PUSH1 0xF8 SHL SUB NOT AND SWAP1 DUP2 PUSH1 0x0 BYTE SWAP1 MSTORE8 POP PUSH1 0x0 PUSH2 0xA0C DUP5 PUSH1 0x2 PUSH2 0xC81 JUMP JUMPDEST PUSH2 0xA17 SWAP1 PUSH1 0x1 PUSH2 0xC98 JUMP JUMPDEST SWAP1 POP JUMPDEST PUSH1 0x1 DUP2 GT ISZERO PUSH2 0xA8F JUMPI PUSH16 0x181899199A1A9B1B9C1CB0B131B232B3 PUSH1 0x81 SHL DUP6 PUSH1 0xF AND PUSH1 0x10 DUP2 LT PUSH2 0xA4B JUMPI PUSH2 0xA4B PUSH2 0xCC1 JUMP JUMPDEST BYTE PUSH1 0xF8 SHL DUP3 DUP3 DUP2 MLOAD DUP2 LT PUSH2 0xA61 JUMPI PUSH2 0xA61 PUSH2 0xCC1 JUMP JUMPDEST PUSH1 0x20 ADD ADD SWAP1 PUSH1 0x1 PUSH1 0x1 PUSH1 0xF8 SHL SUB NOT AND SWAP1 DUP2 PUSH1 0x0 BYTE SWAP1 MSTORE8 POP PUSH1 0x4 SWAP5 SWAP1 SWAP5 SHR SWAP4 PUSH2 0xA88 DUP2 PUSH2 0xCD7 JUMP JUMPDEST SWAP1 POP PUSH2 0xA1A JUMP JUMPDEST POP DUP4 ISZERO PUSH2 0xADE JUMPI PUSH1 0x40 MLOAD PUSH3 0x461BCD PUSH1 0xE5 SHL DUP2 MSTORE PUSH1 0x20 PUSH1 0x4 DUP3 ADD DUP2 SWAP1 MSTORE PUSH1 0x24 DUP3 ADD MSTORE PUSH32 0x537472696E67733A20686578206C656E67746820696E73756666696369656E74 PUSH1 0x44 DUP3 ADD MSTORE PUSH1 0x64 ADD PUSH2 0x23F JUMP JUMPDEST SWAP1 POP JUMPDEST SWAP3 SWAP2 POP POP JUMP JUMPDEST DUP1 CALLDATALOAD PUSH1 0x1 PUSH1 0x1 PUSH1 0xA0 SHL SUB DUP2 AND DUP2 EQ PUSH2 0xAFE JUMPI PUSH1 0x0 DUP1 REVERT JUMPDEST SWAP2 SWAP1 POP JUMP JUMPDEST PUSH1 0x0 DUP1 PUSH1 0x0 PUSH1 0x60 DUP5 DUP7 SUB SLT ISZERO PUSH2 0xB18 JUMPI PUSH1 0x0 DUP1 REVERT JUMPDEST PUSH2 0xB21 DUP5 PUSH2 0xAE7 JUMP JUMPDEST SWAP6 PUSH1 0x20 DUP6 ADD CALLDATALOAD SWAP6 POP PUSH1 0x40 SWAP1 SWAP5 ADD CALLDATALOAD SWAP4 SWAP3 POP POP POP JUMP JUMPDEST PUSH1 0x0 PUSH1 0x20 DUP3 DUP5 SUB SLT ISZERO PUSH2 0xB48 JUMPI PUSH1 0x0 DUP1 REVERT JUMPDEST POP CALLDATALOAD SWAP2 SWAP1 POP JUMP JUMPDEST PUSH1 0x0 PUSH1 0x20 DUP3 DUP5 SUB SLT ISZERO PUSH2 0xB61 JUMPI PUSH1 0x0 DUP1 REVERT JUMPDEST PUSH2 0xB6A DUP3 PUSH2 0xAE7 JUMP JUMPDEST SWAP4 SWAP3 POP POP POP JUMP JUMPDEST DUP1 ISZERO ISZERO DUP2 EQ PUSH2 0xB7F JUMPI PUSH1 0x0 DUP1 REVERT JUMPDEST POP JUMP JUMPDEST PUSH1 0x0 PUSH1 0x20 DUP3 DUP5 SUB SLT ISZERO PUSH2 0xB94 JUMPI PUSH1 0x0 DUP1 REVERT JUMPDEST DUP2 CALLDATALOAD PUSH2 0xADE DUP2 PUSH2 0xB71 JUMP JUMPDEST PUSH1 0x0 JUMPDEST DUP4 DUP2 LT ISZERO PUSH2 0xBBA JUMPI DUP2 DUP2 ADD MLOAD DUP4 DUP3 ADD MSTORE PUSH1 0x20 ADD PUSH2 0xBA2 JUMP JUMPDEST POP POP PUSH1 0x0 SWAP2 ADD MSTORE JUMP JUMPDEST PUSH32 0x544653526577617264733A2054686973206973206E6F7420616E2061646D696E DUP2 MSTORE PUSH10 0x1030B2323932B9B99D1 PUSH1 0xB5 SHL PUSH1 0x20 DUP3 ADD MSTORE PUSH1 0x0 DUP3 MLOAD PUSH2 0xC0E DUP2 PUSH1 0x2A DUP6 ADD PUSH1 0x20 DUP8 ADD PUSH2 0xB9F JUMP JUMPDEST SWAP2 SWAP1 SWAP2 ADD PUSH1 0x2A ADD SWAP3 SWAP2 POP POP JUMP JUMPDEST PUSH1 0x20 DUP2 MSTORE PUSH1 0x0 DUP3 MLOAD DUP1 PUSH1 0x20 DUP5 ADD MSTORE PUSH2 0xC3A DUP2 PUSH1 0x40 DUP6 ADD PUSH1 0x20 DUP8 ADD PUSH2 0xB9F JUMP JUMPDEST PUSH1 0x1F ADD PUSH1 0x1F NOT AND SWAP2 SWAP1 SWAP2 ADD PUSH1 0x40 ADD SWAP3 SWAP2 POP POP JUMP JUMPDEST PUSH1 0x0 PUSH1 0x20 DUP3 DUP5 SUB SLT ISZERO PUSH2 0xC60 JUMPI PUSH1 0x0 DUP1 REVERT JUMPDEST DUP2 MLOAD PUSH2 0xADE DUP2 PUSH2 0xB71 JUMP JUMPDEST PUSH4 0x4E487B71 PUSH1 0xE0 SHL PUSH1 0x0 MSTORE PUSH1 0x11 PUSH1 0x4 MSTORE PUSH1 0x24 PUSH1 0x0 REVERT JUMPDEST DUP1 DUP3 MUL DUP2 ISZERO DUP3 DUP3 DIV DUP5 EQ OR PUSH2 0xAE1 JUMPI PUSH2 0xAE1 PUSH2 0xC6B JUMP JUMPDEST DUP1 DUP3 ADD DUP1 DUP3 GT ISZERO PUSH2 0xAE1 JUMPI PUSH2 0xAE1 PUSH2 0xC6B JUMP JUMPDEST PUSH4 0x4E487B71 PUSH1 0xE0 SHL PUSH1 0x0 MSTORE PUSH1 0x41 PUSH1 0x4 MSTORE PUSH1 0x24 PUSH1 0x0 REVERT JUMPDEST PUSH4 0x4E487B71 PUSH1 0xE0 SHL PUSH1 0x0 MSTORE PUSH1 0x32 PUSH1 0x4 MSTORE PUSH1 0x24 PUSH1 0x0 REVERT JUMPDEST PUSH1 0x0 DUP2 PUSH2 0xCE6 JUMPI PUSH2 0xCE6 PUSH2 0xC6B JUMP JUMPDEST POP PUSH1 0x0 NOT ADD SWAP1 JUMP INVALID LOG2 PUSH5 0x6970667358 0x22 SLT KECCAK256 PC 0xCD CALLDATASIZE SWAP12 0x4D CALLDATACOPY SWAP13 0x24 PUSH24 0x45F9BD4B9FD369352C96B38437355AAA999E08029E688564 PUSH20 0x6F6C634300081300330000000000000000000000 ","sha1":"1aacc6c624070d59a8e3f2ef88c25d813aeb70f5","source":"pragma solidity 0.8.19;\n\nimport \"@openzeppelin/contracts/utils/Strings.sol\";\nimport \"./TFSCoin.sol\";\n\ncontract TFSRewards {\n\n    mapping(address => bool) public isAdmin;\n    TFSCoin coinContract;\n\n    constructor(address _coinContract) {\n        coinContract = TFSCoin(_coinContract);\n        isAdmin[msg.sender] = true;\n        rewardsPaused = true;\n        availableAwards[0] = true;\n        availableAwards[1] = true;\n        availableAwards[2] = true;\n        availableRewards[0] = true;\n        availableRewards[1] = true;\n        availableRewards[2] = true;\n    }\n\n    bool rewardsPaused;\n\n    mapping(uint256 => bool) public availableAwards;\n    mapping(uint256 => bool) public availableRewards;\n\n    event rewardClaimed(address employeeAddress, uint256 rewardID);\n    event awardedCoins(address employeAddress, uint256 awardID);\n    event rewardsHalted(address adminAddress);\n\n    modifier onlyAdmin {\n        require(isAdmin[msg.sender], string.concat(\"TFSRewards: This is not an admin address: \", Strings.toHexString(uint256(uint160(msg.sender)), 20)));\n        _;\n    }\n\n    function claimReward(address employeeAddress, uint256 rewardID, uint256 rewardPrice) onlyAdmin public {\n        require(!rewardsPaused, \"Rewards are currently paused\");\n        require(availableRewards[rewardID], \"TFSRewards: This is not a valid reward at the moment\");\n        require(coinContract.burn(employeeAddress, rewardPrice), \"Not enough TFS Coin for reward\");\n        emit rewardClaimed(employeeAddress, rewardID);\n    }\n\n    function awardCoins(address employeeAddress, uint256 coins, uint256 awardID) onlyAdmin public {\n        require(availableAwards[awardID], \"TFSRewards: This is not a valid award at the moment\");\n        require(coinContract.mint(employeeAddress, coins));\n        emit awardedCoins(employeeAddress, awardID);\n    }\n    \n    function addAward(uint256 awardID) onlyAdmin public {\n        availableAwards[awardID] = true;\n    }\n\n    function removeAward(uint256 awardID) onlyAdmin public {\n        availableAwards[awardID] = false;\n    }\n\n    function addReward(uint256 rewardID) onlyAdmin public {\n        availableRewards[rewardID] = true;\n    }\n\n    function removeReward(uint256 rewardID) onlyAdmin public {\n        availableRewards[rewardID] = false;\n    }\n\n    function pauseRewards(bool _rewardsPaused) onlyAdmin public {\n        rewardsPaused = _rewardsPaused;\n        emit rewardsHalted(msg.sender);\n    }\n\n    function addAdmin(address newAdmin) onlyAdmin public {\n        isAdmin[newAdmin] = true;\n    }\n\n    function removeAdmin(address newAdmin) onlyAdmin public {\n        isAdmin[newAdmin] = false;\n    }\n\n}","sourcePath":"contracts/TFSRewards.sol","type":"contract","deployment":{"address":"0x6E5b3027ef99e2036145ba76F4473fFE0b5EaD91","chainid":"11155111","blockHeight":3379332}}