{"bytecode":"608060405234801561001057600080fd5b5060405161098438038061098483398101604081905261002f916100bd565b600180546001600160a01b0319166001600160a01b0392909216919091178155336000908152602081815260408220805460ff1916909317909255805260647fac33ff75c19e70fe83507db0d683fd3465c996598dc972688b7ace676c89077b5560039052600f7f3617319a054d772f909f7c479a2cebe5066e836a939412e32403c99029b92eff556100ed565b6000602082840312156100cf57600080fd5b81516001600160a01b03811681146100e657600080fd5b9392505050565b610888806100fc6000396000f3fe608060405234801561001057600080fd5b50600436106100b45760003560e01c80633388a560116100715780633388a5601461017d578063704802751461019057806375c93bb9146101a3578063a846351d146101b6578063b1ddf075146101c9578063c553173f146101e957600080fd5b80630460ebe2146100b957806307bdb186146100f1578063174e31c41461011f5780631785f53c1461013457806324d7806c1461014757806331b7558b1461016a575b600080fd5b6100dc6100c73660046106c9565b60046020526000908152604090205460ff1681565b60405190151581526020015b60405180910390f35b6101116100ff3660046106c9565b60026020526000908152604090205481565b6040519081526020016100e8565b61013261012d3660046106fe565b6101fc565b005b610132610142366004610728565b6103ba565b6100dc610155366004610728565b60006020819052908152604090205460ff1681565b61013261017836600461075b565b61040a565b61013261018b366004610778565b610486565b61013261019e366004610728565b6105ab565b6101326101b13660046107ab565b6105fe565b6101326101c43660046106c9565b61063f565b6101116101d73660046106c9565b60036020526000908152604090205481565b6101326101f73660046106c9565b610689565b600154600160a01b900460ff161561025b5760405162461bcd60e51b815260206004820152601c60248201527f52657761726473206172652063757272656e746c79207061757365640000000060448201526064015b60405180910390fd5b60008181526002602052604090205461027357600080fd5b60015460008281526003602052604090819020549051632770a7eb60e21b81526001600160a01b0385811660048301526024820192909252911690639dc29fac906044016020604051808303816000875af11580156102d6573d6000803e3d6000fd5b505050506040513d601f19601f820116820180604052508101906102fa91906107cd565b6103465760405162461bcd60e51b815260206004820152601e60248201527f4e6f7420656e6f7567682054465320436f696e20666f722072657761726400006044820152606401610252565b600081815260026020526040902054610361906001906107ea565b6000828152600260209081526040918290209290925580516001600160a01b03851681529182018390527f83b78188b13346b2ffb484da70d42ee27de7fbf9f2bd8045269e10ed643ccd76910160405180910390a15050565b3360009081526020819052604090205460ff166103e95760405162461bcd60e51b815260040161025290610811565b6001600160a01b03166000908152602081905260409020805460ff19169055565b3360009081526020819052604090205460ff166104395760405162461bcd60e51b815260040161025290610811565b6001805460ff60a01b1916600160a01b831515021790556040513381527ff42b79f7755e1fe195ffe4b6dedd32acb3f379d48c664a958dd6f30ff8bacbf79060200160405180910390a150565b6001546040516340c10f1960e01b81526001600160a01b03858116600483015260248201859052909116906340c10f19906044016020604051808303816000875af11580156104d9573d6000803e3d6000fd5b505050506040513d601f19601f820116820180604052508101906104fd91906107cd565b61050657600080fd5b60008181526004602052604090205460ff166105645760405162461bcd60e51b815260206004820181905260248201527f54686973206973206e6f7420612076616c696420617761726420726561736f6e6044820152606401610252565b604080516001600160a01b0385168152602081018390527fb2c4f3276bce8deebeb5af789303bed30c3a44c5b229ff2fc268da29c610ad40910160405180910390a1505050565b3360009081526020819052604090205460ff166105da5760405162461bcd60e51b815260040161025290610811565b6001600160a01b03166000908152602081905260409020805460ff19166001179055565b3360009081526020819052604090205460ff1661062d5760405162461bcd60e51b815260040161025290610811565b60009182526002602052604090912055565b3360009081526020819052604090205460ff1661066e5760405162461bcd60e51b815260040161025290610811565b6000908152600460205260409020805460ff19166001179055565b3360009081526020819052604090205460ff166106b85760405162461bcd60e51b815260040161025290610811565b600090815260026020526040812055565b6000602082840312156106db57600080fd5b5035919050565b80356001600160a01b03811681146106f957600080fd5b919050565b6000806040838503121561071157600080fd5b61071a836106e2565b946020939093013593505050565b60006020828403121561073a57600080fd5b610743826106e2565b9392505050565b801515811461075857600080fd5b50565b60006020828403121561076d57600080fd5b81356107438161074a565b60008060006060848603121561078d57600080fd5b610796846106e2565b95602085013595506040909401359392505050565b600080604083850312156107be57600080fd5b50508035926020909101359150565b6000602082840312156107df57600080fd5b81516107438161074a565b8181038181111561080b57634e487b7160e01b600052601160045260246000fd5b92915050565b60208082526021908201527f544653526577617264733a20596f7520617265206e6f7420616e2061646d696e6040820152602160f81b60608201526080019056fea264697066735822122028b87b4b917430083e54683d1d6924de25e29a491ddac13d5cf46da50cbdda1a64736f6c63430008130033","bytecodeSha1":"b6cbfee8d380332d38647b4c81e492992c3ecef8","type":"contract","abi":[{"inputs":[{"internalType":"address","name":"_coinContract","type":"address"}],"stateMutability":"nonpayable","type":"constructor","name":"constructor"},{"anonymous":false,"inputs":[{"indexed":false,"internalType":"address","name":"who","type":"address"},{"indexed":false,"internalType":"bytes32","name":"reason","type":"bytes32"}],"name":"awardedCoins","type":"event"},{"anonymous":false,"inputs":[{"indexed":false,"internalType":"address","name":"claimee","type":"address"},{"indexed":false,"internalType":"uint256","name":"rewardID","type":"uint256"}],"name":"rewardClaimed","type":"event"},{"anonymous":false,"inputs":[{"indexed":false,"internalType":"address","name":"who","type":"address"}],"name":"rewardsHalted","type":"event"},{"inputs":[{"internalType":"address","name":"newAdmin","type":"address"}],"name":"addAdmin","outputs":[],"stateMutability":"nonpayable","type":"function"},{"inputs":[{"internalType":"bytes32","name":"awardReason","type":"bytes32"}],"name":"addAward","outputs":[],"stateMutability":"nonpayable","type":"function"},{"inputs":[{"internalType":"uint256","name":"rewardID","type":"uint256"},{"internalType":"uint256","name":"rewardCount","type":"uint256"}],"name":"addReward","outputs":[],"stateMutability":"nonpayable","type":"function"},{"inputs":[{"internalType":"bytes32","name":"","type":"bytes32"}],"name":"availableAwards","outputs":[{"internalType":"bool","name":"","type":"bool"}],"stateMutability":"view","type":"function"},{"inputs":[{"internalType":"address","name":"employeeAddress","type":"address"},{"internalType":"uint256","name":"coins","type":"uint256"},{"internalType":"bytes32","name":"reason","type":"bytes32"}],"name":"awardCoins","outputs":[],"stateMutability":"nonpayable","type":"function"},{"inputs":[{"internalType":"address","name":"employeeAddress","type":"address"},{"internalType":"uint256","name":"rewardID","type":"uint256"}],"name":"claimReward","outputs":[],"stateMutability":"nonpayable","type":"function"},{"inputs":[{"internalType":"address","name":"","type":"address"}],"name":"isAdmin","outputs":[{"internalType":"bool","name":"","type":"bool"}],"stateMutability":"view","type":"function"},{"inputs":[{"internalType":"bool","name":"_rewardsPaused","type":"bool"}],"name":"pauseRewards","outputs":[],"stateMutability":"nonpayable","type":"function"},{"inputs":[{"internalType":"address","name":"newAdmin","type":"address"}],"name":"removeAdmin","outputs":[],"stateMutability":"nonpayable","type":"function"},{"inputs":[{"internalType":"uint256","name":"rewardID","type":"uint256"}],"name":"removeReward","outputs":[],"stateMutability":"nonpayable","type":"function"},{"inputs":[{"internalType":"uint256","name":"","type":"uint256"}],"name":"rewardIDToRewardCount","outputs":[{"internalType":"uint256","name":"","type":"uint256"}],"stateMutability":"view","type":"function"},{"inputs":[{"internalType":"uint256","name":"","type":"uint256"}],"name":"rewardIDToRewardPrice","outputs":[{"internalType":"uint256","name":"","type":"uint256"}],"stateMutability":"view","type":"function"}],"compiler":{"version":"0.8.19+commit.7dd6d404","evm_version":"istanbul","optimizer":{"enabled":true,"runs":200}},"contractName":"TFSRewards","language":"Solidity","natspec":{"methods":{},"kind":"dev","version":1},"opcodes":"PUSH1 0x80 PUSH1 0x40 MSTORE CALLVALUE DUP1 ISZERO PUSH2 0x10 JUMPI PUSH1 0x0 DUP1 REVERT JUMPDEST POP PUSH1 0x4 CALLDATASIZE LT PUSH2 0xB4 JUMPI PUSH1 0x0 CALLDATALOAD PUSH1 0xE0 SHR DUP1 PUSH4 0x3388A560 GT PUSH2 0x71 JUMPI DUP1 PUSH4 0x3388A560 EQ PUSH2 0x17D JUMPI DUP1 PUSH4 0x70480275 EQ PUSH2 0x190 JUMPI DUP1 PUSH4 0x75C93BB9 EQ PUSH2 0x1A3 JUMPI DUP1 PUSH4 0xA846351D EQ PUSH2 0x1B6 JUMPI DUP1 PUSH4 0xB1DDF075 EQ PUSH2 0x1C9 JUMPI DUP1 PUSH4 0xC553173F EQ PUSH2 0x1E9 JUMPI PUSH1 0x0 DUP1 REVERT JUMPDEST DUP1 PUSH4 0x460EBE2 EQ PUSH2 0xB9 JUMPI DUP1 PUSH4 0x7BDB186 EQ PUSH2 0xF1 JUMPI DUP1 PUSH4 0x174E31C4 EQ PUSH2 0x11F JUMPI DUP1 PUSH4 0x1785F53C EQ PUSH2 0x134 JUMPI DUP1 PUSH4 0x24D7806C EQ PUSH2 0x147 JUMPI DUP1 PUSH4 0x31B7558B EQ PUSH2 0x16A JUMPI JUMPDEST PUSH1 0x0 DUP1 REVERT JUMPDEST PUSH2 0xDC PUSH2 0xC7 CALLDATASIZE PUSH1 0x4 PUSH2 0x6C9 JUMP JUMPDEST PUSH1 0x4 PUSH1 0x20 MSTORE PUSH1 0x0 SWAP1 DUP2 MSTORE PUSH1 0x40 SWAP1 KECCAK256 SLOAD PUSH1 0xFF AND DUP2 JUMP JUMPDEST PUSH1 0x40 MLOAD SWAP1 ISZERO ISZERO DUP2 MSTORE PUSH1 0x20 ADD JUMPDEST PUSH1 0x40 MLOAD DUP1 SWAP2 SUB SWAP1 RETURN JUMPDEST PUSH2 0x111 PUSH2 0xFF CALLDATASIZE PUSH1 0x4 PUSH2 0x6C9 JUMP JUMPDEST PUSH1 0x2 PUSH1 0x20 MSTORE PUSH1 0x0 SWAP1 DUP2 MSTORE PUSH1 0x40 SWAP1 KECCAK256 SLOAD DUP2 JUMP JUMPDEST PUSH1 0x40 MLOAD SWAP1 DUP2 MSTORE PUSH1 0x20 ADD PUSH2 0xE8 JUMP JUMPDEST PUSH2 0x132 PUSH2 0x12D CALLDATASIZE PUSH1 0x4 PUSH2 0x6FE JUMP JUMPDEST PUSH2 0x1FC JUMP JUMPDEST STOP JUMPDEST PUSH2 0x132 PUSH2 0x142 CALLDATASIZE PUSH1 0x4 PUSH2 0x728 JUMP JUMPDEST PUSH2 0x3BA JUMP JUMPDEST PUSH2 0xDC PUSH2 0x155 CALLDATASIZE PUSH1 0x4 PUSH2 0x728 JUMP JUMPDEST PUSH1 0x0 PUSH1 0x20 DUP2 SWAP1 MSTORE SWAP1 DUP2 MSTORE PUSH1 0x40 SWAP1 KECCAK256 SLOAD PUSH1 0xFF AND DUP2 JUMP JUMPDEST PUSH2 0x132 PUSH2 0x178 CALLDATASIZE PUSH1 0x4 PUSH2 0x75B JUMP JUMPDEST PUSH2 0x40A JUMP JUMPDEST PUSH2 0x132 PUSH2 0x18B CALLDATASIZE PUSH1 0x4 PUSH2 0x778 JUMP JUMPDEST PUSH2 0x486 JUMP JUMPDEST PUSH2 0x132 PUSH2 0x19E CALLDATASIZE PUSH1 0x4 PUSH2 0x728 JUMP JUMPDEST PUSH2 0x5AB JUMP JUMPDEST PUSH2 0x132 PUSH2 0x1B1 CALLDATASIZE PUSH1 0x4 PUSH2 0x7AB JUMP JUMPDEST PUSH2 0x5FE JUMP JUMPDEST PUSH2 0x132 PUSH2 0x1C4 CALLDATASIZE PUSH1 0x4 PUSH2 0x6C9 JUMP JUMPDEST PUSH2 0x63F JUMP JUMPDEST PUSH2 0x111 PUSH2 0x1D7 CALLDATASIZE PUSH1 0x4 PUSH2 0x6C9 JUMP JUMPDEST PUSH1 0x3 PUSH1 0x20 MSTORE PUSH1 0x0 SWAP1 DUP2 MSTORE PUSH1 0x40 SWAP1 KECCAK256 SLOAD DUP2 JUMP JUMPDEST PUSH2 0x132 PUSH2 0x1F7 CALLDATASIZE PUSH1 0x4 PUSH2 0x6C9 JUMP JUMPDEST PUSH2 0x689 JUMP JUMPDEST PUSH1 0x1 SLOAD PUSH1 0x1 PUSH1 0xA0 SHL SWAP1 DIV PUSH1 0xFF AND ISZERO PUSH2 0x25B JUMPI PUSH1 0x40 MLOAD PUSH3 0x461BCD PUSH1 0xE5 SHL DUP2 MSTORE PUSH1 0x20 PUSH1 0x4 DUP3 ADD MSTORE PUSH1 0x1C PUSH1 0x24 DUP3 ADD MSTORE PUSH32 0x52657761726473206172652063757272656E746C792070617573656400000000 PUSH1 0x44 DUP3 ADD MSTORE PUSH1 0x64 ADD JUMPDEST PUSH1 0x40 MLOAD DUP1 SWAP2 SUB SWAP1 REVERT JUMPDEST PUSH1 0x0 DUP2 DUP2 MSTORE PUSH1 0x2 PUSH1 0x20 MSTORE PUSH1 0x40 SWAP1 KECCAK256 SLOAD PUSH2 0x273 JUMPI PUSH1 0x0 DUP1 REVERT JUMPDEST PUSH1 0x1 SLOAD PUSH1 0x0 DUP3 DUP2 MSTORE PUSH1 0x3 PUSH1 0x20 MSTORE PUSH1 0x40 SWAP1 DUP2 SWAP1 KECCAK256 SLOAD SWAP1 MLOAD PUSH4 0x2770A7EB PUSH1 0xE2 SHL DUP2 MSTORE PUSH1 0x1 PUSH1 0x1 PUSH1 0xA0 SHL SUB DUP6 DUP2 AND PUSH1 0x4 DUP4 ADD MSTORE PUSH1 0x24 DUP3 ADD SWAP3 SWAP1 SWAP3 MSTORE SWAP2 AND SWAP1 PUSH4 0x9DC29FAC SWAP1 PUSH1 0x44 ADD PUSH1 0x20 PUSH1 0x40 MLOAD DUP1 DUP4 SUB DUP2 PUSH1 0x0 DUP8 GAS CALL ISZERO DUP1 ISZERO PUSH2 0x2D6 JUMPI RETURNDATASIZE PUSH1 0x0 DUP1 RETURNDATACOPY RETURNDATASIZE PUSH1 0x0 REVERT JUMPDEST POP POP POP POP PUSH1 0x40 MLOAD RETURNDATASIZE PUSH1 0x1F NOT PUSH1 0x1F DUP3 ADD AND DUP3 ADD DUP1 PUSH1 0x40 MSTORE POP DUP2 ADD SWAP1 PUSH2 0x2FA SWAP2 SWAP1 PUSH2 0x7CD JUMP JUMPDEST PUSH2 0x346 JUMPI PUSH1 0x40 MLOAD PUSH3 0x461BCD PUSH1 0xE5 SHL DUP2 MSTORE PUSH1 0x20 PUSH1 0x4 DUP3 ADD MSTORE PUSH1 0x1E PUSH1 0x24 DUP3 ADD MSTORE PUSH32 0x4E6F7420656E6F7567682054465320436F696E20666F72207265776172640000 PUSH1 0x44 DUP3 ADD MSTORE PUSH1 0x64 ADD PUSH2 0x252 JUMP JUMPDEST PUSH1 0x0 DUP2 DUP2 MSTORE PUSH1 0x2 PUSH1 0x20 MSTORE PUSH1 0x40 SWAP1 KECCAK256 SLOAD PUSH2 0x361 SWAP1 PUSH1 0x1 SWAP1 PUSH2 0x7EA JUMP JUMPDEST PUSH1 0x0 DUP3 DUP2 MSTORE PUSH1 0x2 PUSH1 0x20 SWAP1 DUP2 MSTORE PUSH1 0x40 SWAP2 DUP3 SWAP1 KECCAK256 SWAP3 SWAP1 SWAP3 SSTORE DUP1 MLOAD PUSH1 0x1 PUSH1 0x1 PUSH1 0xA0 SHL SUB DUP6 AND DUP2 MSTORE SWAP2 DUP3 ADD DUP4 SWAP1 MSTORE PUSH32 0x83B78188B13346B2FFB484DA70D42EE27DE7FBF9F2BD8045269E10ED643CCD76 SWAP2 ADD PUSH1 0x40 MLOAD DUP1 SWAP2 SUB SWAP1 LOG1 POP POP JUMP JUMPDEST CALLER PUSH1 0x0 SWAP1 DUP2 MSTORE PUSH1 0x20 DUP2 SWAP1 MSTORE PUSH1 0x40 SWAP1 KECCAK256 SLOAD PUSH1 0xFF AND PUSH2 0x3E9 JUMPI PUSH1 0x40 MLOAD PUSH3 0x461BCD PUSH1 0xE5 SHL DUP2 MSTORE PUSH1 0x4 ADD PUSH2 0x252 SWAP1 PUSH2 0x811 JUMP JUMPDEST PUSH1 0x1 PUSH1 0x1 PUSH1 0xA0 SHL SUB AND PUSH1 0x0 SWAP1 DUP2 MSTORE PUSH1 0x20 DUP2 SWAP1 MSTORE PUSH1 0x40 SWAP1 KECCAK256 DUP1 SLOAD PUSH1 0xFF NOT AND SWAP1 SSTORE JUMP JUMPDEST CALLER PUSH1 0x0 SWAP1 DUP2 MSTORE PUSH1 0x20 DUP2 SWAP1 MSTORE PUSH1 0x40 SWAP1 KECCAK256 SLOAD PUSH1 0xFF AND PUSH2 0x439 JUMPI PUSH1 0x40 MLOAD PUSH3 0x461BCD PUSH1 0xE5 SHL DUP2 MSTORE PUSH1 0x4 ADD PUSH2 0x252 SWAP1 PUSH2 0x811 JUMP JUMPDEST PUSH1 0x1 DUP1 SLOAD PUSH1 0xFF PUSH1 0xA0 SHL NOT AND PUSH1 0x1 PUSH1 0xA0 SHL DUP4 ISZERO ISZERO MUL OR SWAP1 SSTORE PUSH1 0x40 MLOAD CALLER DUP2 MSTORE PUSH32 0xF42B79F7755E1FE195FFE4B6DEDD32ACB3F379D48C664A958DD6F30FF8BACBF7 SWAP1 PUSH1 0x20 ADD PUSH1 0x40 MLOAD DUP1 SWAP2 SUB SWAP1 LOG1 POP JUMP JUMPDEST PUSH1 0x1 SLOAD PUSH1 0x40 MLOAD PUSH4 0x40C10F19 PUSH1 0xE0 SHL DUP2 MSTORE PUSH1 0x1 PUSH1 0x1 PUSH1 0xA0 SHL SUB DUP6 DUP2 AND PUSH1 0x4 DUP4 ADD MSTORE PUSH1 0x24 DUP3 ADD DUP6 SWAP1 MSTORE SWAP1 SWAP2 AND SWAP1 PUSH4 0x40C10F19 SWAP1 PUSH1 0x44 ADD PUSH1 0x20 PUSH1 0x40 MLOAD DUP1 DUP4 SUB DUP2 PUSH1 0x0 DUP8 GAS CALL ISZERO DUP1 ISZERO PUSH2 0x4D9 JUMPI RETURNDATASIZE PUSH1 0x0 DUP1 RETURNDATACOPY RETURNDATASIZE PUSH1 0x0 REVERT JUMPDEST POP POP POP POP PUSH1 0x40 MLOAD RETURNDATASIZE PUSH1 0x1F NOT PUSH1 0x1F DUP3 ADD AND DUP3 ADD DUP1 PUSH1 0x40 MSTORE POP DUP2 ADD SWAP1 PUSH2 0x4FD SWAP2 SWAP1 PUSH2 0x7CD JUMP JUMPDEST PUSH2 0x506 JUMPI PUSH1 0x0 DUP1 REVERT JUMPDEST PUSH1 0x0 DUP2 DUP2 MSTORE PUSH1 0x4 PUSH1 0x20 MSTORE PUSH1 0x40 SWAP1 KECCAK256 SLOAD PUSH1 0xFF AND PUSH2 0x564 JUMPI PUSH1 0x40 MLOAD PUSH3 0x461BCD PUSH1 0xE5 SHL DUP2 MSTORE PUSH1 0x20 PUSH1 0x4 DUP3 ADD DUP2 SWAP1 MSTORE PUSH1 0x24 DUP3 ADD MSTORE PUSH32 0x54686973206973206E6F7420612076616C696420617761726420726561736F6E PUSH1 0x44 DUP3 ADD MSTORE PUSH1 0x64 ADD PUSH2 0x252 JUMP JUMPDEST PUSH1 0x40 DUP1 MLOAD PUSH1 0x1 PUSH1 0x1 PUSH1 0xA0 SHL SUB DUP6 AND DUP2 MSTORE PUSH1 0x20 DUP2 ADD DUP4 SWAP1 MSTORE PUSH32 0xB2C4F3276BCE8DEEBEB5AF789303BED30C3A44C5B229FF2FC268DA29C610AD40 SWAP2 ADD PUSH1 0x40 MLOAD DUP1 SWAP2 SUB SWAP1 LOG1 POP POP POP JUMP JUMPDEST CALLER PUSH1 0x0 SWAP1 DUP2 MSTORE PUSH1 0x20 DUP2 SWAP1 MSTORE PUSH1 0x40 SWAP1 KECCAK256 SLOAD PUSH1 0xFF AND PUSH2 0x5DA JUMPI PUSH1 0x40 MLOAD PUSH3 0x461BCD PUSH1 0xE5 SHL DUP2 MSTORE PUSH1 0x4 ADD PUSH2 0x252 SWAP1 PUSH2 0x811 JUMP JUMPDEST PUSH1 0x1 PUSH1 0x1 PUSH1 0xA0 SHL SUB AND PUSH1 0x0 SWAP1 DUP2 MSTORE PUSH1 0x20 DUP2 SWAP1 MSTORE PUSH1 0x40 SWAP1 KECCAK256 DUP1 SLOAD PUSH1 0xFF NOT AND PUSH1 0x1 OR SWAP1 SSTORE JUMP JUMPDEST CALLER PUSH1 0x0 SWAP1 DUP2 MSTORE PUSH1 0x20 DUP2 SWAP1 MSTORE PUSH1 0x40 SWAP1 KECCAK256 SLOAD PUSH1 0xFF AND PUSH2 0x62D JUMPI PUSH1 0x40 MLOAD PUSH3 0x461BCD PUSH1 0xE5 SHL DUP2 MSTORE PUSH1 0x4 ADD PUSH2 0x252 SWAP1 PUSH2 0x811 JUMP JUMPDEST PUSH1 0x0 SWAP2 DUP3 MSTORE PUSH1 0x2 PUSH1 0x20 MSTORE PUSH1 0x40 SWAP1 SWAP2 KECCAK256 SSTORE JUMP JUMPDEST CALLER PUSH1 0x0 SWAP1 DUP2 MSTORE PUSH1 0x20 DUP2 SWAP1 MSTORE PUSH1 0x40 SWAP1 KECCAK256 SLOAD PUSH1 0xFF AND PUSH2 0x66E JUMPI PUSH1 0x40 MLOAD PUSH3 0x461BCD PUSH1 0xE5 SHL DUP2 MSTORE PUSH1 0x4 ADD PUSH2 0x252 SWAP1 PUSH2 0x811 JUMP JUMPDEST PUSH1 0x0 SWAP1 DUP2 MSTORE PUSH1 0x4 PUSH1 0x20 MSTORE PUSH1 0x40 SWAP1 KECCAK256 DUP1 SLOAD PUSH1 0xFF NOT AND PUSH1 0x1 OR SWAP1 SSTORE JUMP JUMPDEST CALLER PUSH1 0x0 SWAP1 DUP2 MSTORE PUSH1 0x20 DUP2 SWAP1 MSTORE PUSH1 0x40 SWAP1 KECCAK256 SLOAD PUSH1 0xFF AND PUSH2 0x6B8 JUMPI PUSH1 0x40 MLOAD PUSH3 0x461BCD PUSH1 0xE5 SHL DUP2 MSTORE PUSH1 0x4 ADD PUSH2 0x252 SWAP1 PUSH2 0x811 JUMP JUMPDEST PUSH1 0x0 SWAP1 DUP2 MSTORE PUSH1 0x2 PUSH1 0x20 MSTORE PUSH1 0x40 DUP2 KECCAK256 SSTORE JUMP JUMPDEST PUSH1 0x0 PUSH1 0x20 DUP3 DUP5 SUB SLT ISZERO PUSH2 0x6DB JUMPI PUSH1 0x0 DUP1 REVERT JUMPDEST POP CALLDATALOAD SWAP2 SWAP1 POP JUMP JUMPDEST DUP1 CALLDATALOAD PUSH1 0x1 PUSH1 0x1 PUSH1 0xA0 SHL SUB DUP2 AND DUP2 EQ PUSH2 0x6F9 JUMPI PUSH1 0x0 DUP1 REVERT JUMPDEST SWAP2 SWAP1 POP JUMP JUMPDEST PUSH1 0x0 DUP1 PUSH1 0x40 DUP4 DUP6 SUB SLT ISZERO PUSH2 0x711 JUMPI PUSH1 0x0 DUP1 REVERT JUMPDEST PUSH2 0x71A DUP4 PUSH2 0x6E2 JUMP JUMPDEST SWAP5 PUSH1 0x20 SWAP4 SWAP1 SWAP4 ADD CALLDATALOAD SWAP4 POP POP POP JUMP JUMPDEST PUSH1 0x0 PUSH1 0x20 DUP3 DUP5 SUB SLT ISZERO PUSH2 0x73A JUMPI PUSH1 0x0 DUP1 REVERT JUMPDEST PUSH2 0x743 DUP3 PUSH2 0x6E2 JUMP JUMPDEST SWAP4 SWAP3 POP POP POP JUMP JUMPDEST DUP1 ISZERO ISZERO DUP2 EQ PUSH2 0x758 JUMPI PUSH1 0x0 DUP1 REVERT JUMPDEST POP JUMP JUMPDEST PUSH1 0x0 PUSH1 0x20 DUP3 DUP5 SUB SLT ISZERO PUSH2 0x76D JUMPI PUSH1 0x0 DUP1 REVERT JUMPDEST DUP2 CALLDATALOAD PUSH2 0x743 DUP2 PUSH2 0x74A JUMP JUMPDEST PUSH1 0x0 DUP1 PUSH1 0x0 PUSH1 0x60 DUP5 DUP7 SUB SLT ISZERO PUSH2 0x78D JUMPI PUSH1 0x0 DUP1 REVERT JUMPDEST PUSH2 0x796 DUP5 PUSH2 0x6E2 JUMP JUMPDEST SWAP6 PUSH1 0x20 DUP6 ADD CALLDATALOAD SWAP6 POP PUSH1 0x40 SWAP1 SWAP5 ADD CALLDATALOAD SWAP4 SWAP3 POP POP POP JUMP JUMPDEST PUSH1 0x0 DUP1 PUSH1 0x40 DUP4 DUP6 SUB SLT ISZERO PUSH2 0x7BE JUMPI PUSH1 0x0 DUP1 REVERT JUMPDEST POP POP DUP1 CALLDATALOAD SWAP3 PUSH1 0x20 SWAP1 SWAP2 ADD CALLDATALOAD SWAP2 POP JUMP JUMPDEST PUSH1 0x0 PUSH1 0x20 DUP3 DUP5 SUB SLT ISZERO PUSH2 0x7DF JUMPI PUSH1 0x0 DUP1 REVERT JUMPDEST DUP2 MLOAD PUSH2 0x743 DUP2 PUSH2 0x74A JUMP JUMPDEST DUP2 DUP2 SUB DUP2 DUP2 GT ISZERO PUSH2 0x80B JUMPI PUSH4 0x4E487B71 PUSH1 0xE0 SHL PUSH1 0x0 MSTORE PUSH1 0x11 PUSH1 0x4 MSTORE PUSH1 0x24 PUSH1 0x0 REVERT JUMPDEST SWAP3 SWAP2 POP POP JUMP JUMPDEST PUSH1 0x20 DUP1 DUP3 MSTORE PUSH1 0x21 SWAP1 DUP3 ADD MSTORE PUSH32 0x544653526577617264733A20596F7520617265206E6F7420616E2061646D696E PUSH1 0x40 DUP3 ADD MSTORE PUSH1 0x21 PUSH1 0xF8 SHL PUSH1 0x60 DUP3 ADD MSTORE PUSH1 0x80 ADD SWAP1 JUMP INVALID LOG2 PUSH5 0x6970667358 0x22 SLT KECCAK256 0x28 0xB8 PUSH28 0x4B917430083E54683D1D6924DE25E29A491DDAC13D5CF46DA50CBDDA BYTE PUSH5 0x736F6C6343 STOP ADDMOD SGT STOP CALLER ","sha1":"d8cf85e5775cedb256fb5dcc7d81450c487a9ebe","source":"pragma solidity 0.8.19;\n\nimport \"@openzeppelin/contracts/token/ERC20/ERC20.sol\";\nimport \"./TFSCoin.sol\";\n\ncontract TFSRewards {\n\n    mapping(address => bool) public isAdmin;\n    TFSCoin coinContract;\n\n    constructor(address _coinContract) {\n        coinContract = TFSCoin(_coinContract);\n        isAdmin[msg.sender] = true;\n        rewardIDToRewardCount[0] = 100;\n        rewardIDToRewardPrice[0] = 15;\n    }\n\n    bool rewardsPaused;\n\n    mapping(uint256 => uint256) public rewardIDToRewardCount;\n    mapping(uint256 => uint256) public rewardIDToRewardPrice;\n    mapping(bytes32 => bool) public availableAwards;\n\n    event rewardClaimed(address claimee, uint256 rewardID);\n    event rewardsHalted(address who);\n    event awardedCoins(address who, bytes32 reason);\n\n    modifier onlyAdmin {\n        require(isAdmin[msg.sender], \"TFSRewards: You are not an admin!\");\n        _;\n    }\n\n    function claimReward(address employeeAddress, uint256 rewardID) public {\n        require(!rewardsPaused, \"Rewards are currently paused\");\n        require(rewardIDToRewardCount[rewardID] > 0);\n        require(coinContract.burn(employeeAddress, rewardIDToRewardPrice[rewardID]), \"Not enough TFS Coin for reward\");\n        rewardIDToRewardCount[rewardID] = rewardIDToRewardCount[rewardID] - 1;\n        emit rewardClaimed(employeeAddress, rewardID);\n    }\n\n    function awardCoins(address employeeAddress, uint256 coins, bytes32 reason) public {\n        \n        require(coinContract.mint(employeeAddress, coins));\n        require(availableAwards[reason], \"This is not a valid award reason\");\n        emit awardedCoins(employeeAddress, reason);\n    }\n    \n    function addAward(bytes32 awardReason) onlyAdmin public {\n        availableAwards[awardReason] = true;\n    }\n\n    function addReward(uint256 rewardID, uint256 rewardCount) onlyAdmin public {\n        rewardIDToRewardCount[rewardID] = rewardCount;\n    }\n\n    function removeReward(uint256 rewardID) onlyAdmin public {\n        rewardIDToRewardCount[rewardID] = 0;\n    }\n\n    function pauseRewards(bool _rewardsPaused) onlyAdmin public {\n        rewardsPaused = _rewardsPaused;\n        emit rewardsHalted(msg.sender);\n    }\n\n    function addAdmin(address newAdmin) onlyAdmin public {\n        isAdmin[newAdmin] = true;\n    }\n\n    function removeAdmin(address newAdmin) onlyAdmin public {\n        isAdmin[newAdmin] = false;\n    }\n\n}","sourcePath":"contracts/TFSRewards.sol","deployment":{"address":"0xF2EFcA0e492fdADe9634002ee304f057CC960c54","chainid":"11155111","blockHeight":3337256}}